{
  "_format": "hh-sol-artifact-1",
  "contractName": "VRF25RaffleEnhanced",
  "sourceName": "contracts/VRF25RaffleEnhanced.sol",
  "abi": [
    {
      "inputs": [
        {
          "internalType": "address",
          "name": "_devWallet",
          "type": "address"
        }
      ],
      "stateMutability": "nonpayable",
      "type": "constructor"
    },
    {
      "inputs": [],
      "name": "InsufficientPayment",
      "type": "error"
    },
    {
      "inputs": [],
      "name": "InvalidRoundId",
      "type": "error"
    },
    {
      "inputs": [],
      "name": "NoParticipants",
      "type": "error"
    },
    {
      "inputs": [],
      "name": "NotEnoughDevFees",
      "type": "error"
    },
    {
      "inputs": [],
      "name": "NotEnoughParticipants",
      "type": "error"
    },
    {
      "inputs": [],
      "name": "OnlyVRFCoordinator",
      "type": "error"
    },
    {
      "inputs": [],
      "name": "OnlyWinnerCanClaim",
      "type": "error"
    },
    {
      "inputs": [
        {
          "internalType": "address",
          "name": "owner",
          "type": "address"
        }
      ],
      "name": "OwnableInvalidOwner",
      "type": "error"
    },
    {
      "inputs": [
        {
          "internalType": "address",
          "name": "account",
          "type": "address"
        }
      ],
      "name": "OwnableUnauthorizedAccount",
      "type": "error"
    },
    {
      "inputs": [],
      "name": "PrizeAlreadyClaimed",
      "type": "error"
    },
    {
      "inputs": [],
      "name": "RaffleExpired",
      "type": "error"
    },
    {
      "inputs": [],
      "name": "RaffleNotOpen",
      "type": "error"
    },
    {
      "inputs": [],
      "name": "RaffleStillActive",
      "type": "error"
    },
    {
      "inputs": [],
      "name": "ReentrancyGuardReentrantCall",
      "type": "error"
    },
    {
      "inputs": [],
      "name": "WithdrawalFailed",
      "type": "error"
    },
    {
      "anonymous": false,
      "inputs": [
        {
          "indexed": true,
          "internalType": "address",
          "name": "devWallet",
          "type": "address"
        },
        {
          "indexed": false,
          "internalType": "uint256",
          "name": "amount",
          "type": "uint256"
        }
      ],
      "name": "DevFeesWithdrawn",
      "type": "event"
    },
    {
      "anonymous": false,
      "inputs": [
        {
          "indexed": true,
          "internalType": "address",
          "name": "previousOwner",
          "type": "address"
        },
        {
          "indexed": true,
          "internalType": "address",
          "name": "newOwner",
          "type": "address"
        }
      ],
      "name": "OwnershipTransferred",
      "type": "event"
    },
    {
      "anonymous": false,
      "inputs": [
        {
          "indexed": true,
          "internalType": "uint256",
          "name": "roundId",
          "type": "uint256"
        },
        {
          "indexed": true,
          "internalType": "address",
          "name": "winner",
          "type": "address"
        },
        {
          "indexed": false,
          "internalType": "uint256",
          "name": "amount",
          "type": "uint256"
        }
      ],
      "name": "PrizeClaimed",
      "type": "event"
    },
    {
      "anonymous": false,
      "inputs": [
        {
          "indexed": true,
          "internalType": "uint256",
          "name": "roundId",
          "type": "uint256"
        },
        {
          "indexed": false,
          "internalType": "uint256",
          "name": "startTime",
          "type": "uint256"
        }
      ],
      "name": "RaffleStarted",
      "type": "event"
    },
    {
      "anonymous": false,
      "inputs": [
        {
          "indexed": true,
          "internalType": "uint256",
          "name": "roundId",
          "type": "uint256"
        },
        {
          "indexed": false,
          "internalType": "uint256",
          "name": "requestId",
          "type": "uint256"
        }
      ],
      "name": "RandomnessRequested",
      "type": "event"
    },
    {
      "anonymous": false,
      "inputs": [
        {
          "indexed": true,
          "internalType": "uint256",
          "name": "roundId",
          "type": "uint256"
        },
        {
          "indexed": true,
          "internalType": "address",
          "name": "participant",
          "type": "address"
        },
        {
          "indexed": false,
          "internalType": "uint256",
          "name": "ticketCount",
          "type": "uint256"
        }
      ],
      "name": "TicketPurchased",
      "type": "event"
    },
    {
      "anonymous": false,
      "inputs": [
        {
          "indexed": true,
          "internalType": "uint256",
          "name": "roundId",
          "type": "uint256"
        },
        {
          "indexed": true,
          "internalType": "address",
          "name": "winner",
          "type": "address"
        },
        {
          "indexed": false,
          "internalType": "uint256",
          "name": "prizeAmount",
          "type": "uint256"
        },
        {
          "indexed": false,
          "internalType": "uint256",
          "name": "randomValue",
          "type": "uint256"
        }
      ],
      "name": "WinnerSelected",
      "type": "event"
    },
    {
      "inputs": [],
      "name": "DEV_PERCENTAGE",
      "outputs": [
        {
          "internalType": "uint256",
          "name": "",
          "type": "uint256"
        }
      ],
      "stateMutability": "view",
      "type": "function"
    },
    {
      "inputs": [],
      "name": "MIN_UNIQUE_PARTICIPANTS",
      "outputs": [
        {
          "internalType": "uint256",
          "name": "",
          "type": "uint256"
        }
      ],
      "stateMutability": "view",
      "type": "function"
    },
    {
      "inputs": [],
      "name": "PRIZE_PERCENTAGE",
      "outputs": [
        {
          "internalType": "uint256",
          "name": "",
          "type": "uint256"
        }
      ],
      "stateMutability": "view",
      "type": "function"
    },
    {
      "inputs": [],
      "name": "RAFFLE_DURATION",
      "outputs": [
        {
          "internalType": "uint256",
          "name": "",
          "type": "uint256"
        }
      ],
      "stateMutability": "view",
      "type": "function"
    },
    {
      "inputs": [],
      "name": "TICKET_PRICE",
      "outputs": [
        {
          "internalType": "uint256",
          "name": "",
          "type": "uint256"
        }
      ],
      "stateMutability": "view",
      "type": "function"
    },
    {
      "inputs": [
        {
          "internalType": "uint256",
          "name": "ticketCount",
          "type": "uint256"
        }
      ],
      "name": "buyTickets",
      "outputs": [],
      "stateMutability": "payable",
      "type": "function"
    },
    {
      "inputs": [
        {
          "internalType": "uint256",
          "name": "roundId",
          "type": "uint256"
        }
      ],
      "name": "claimPrize",
      "outputs": [],
      "stateMutability": "nonpayable",
      "type": "function"
    },
    {
      "inputs": [],
      "name": "currentRoundId",
      "outputs": [
        {
          "internalType": "uint256",
          "name": "",
          "type": "uint256"
        }
      ],
      "stateMutability": "view",
      "type": "function"
    },
    {
      "inputs": [],
      "name": "devWallet",
      "outputs": [
        {
          "internalType": "address",
          "name": "",
          "type": "address"
        }
      ],
      "stateMutability": "view",
      "type": "function"
    },
    {
      "inputs": [],
      "name": "drawWinner",
      "outputs": [],
      "stateMutability": "nonpayable",
      "type": "function"
    },
    {
      "inputs": [],
      "name": "emergencyWithdraw",
      "outputs": [],
      "stateMutability": "nonpayable",
      "type": "function"
    },
    {
      "inputs": [],
      "name": "getBalanceInfo",
      "outputs": [
        {
          "internalType": "uint256",
          "name": "contractBalance",
          "type": "uint256"
        },
        {
          "internalType": "uint256",
          "name": "devFeesAvailable",
          "type": "uint256"
        }
      ],
      "stateMutability": "view",
      "type": "function"
    },
    {
      "inputs": [],
      "name": "getContractStats",
      "outputs": [
        {
          "internalType": "uint256",
          "name": "totalRounds",
          "type": "uint256"
        },
        {
          "internalType": "uint256",
          "name": "totalCompleted",
          "type": "uint256"
        },
        {
          "internalType": "uint256",
          "name": "currentRound",
          "type": "uint256"
        },
        {
          "internalType": "uint256",
          "name": "totalDevFeesAccumulated",
          "type": "uint256"
        },
        {
          "internalType": "uint256",
          "name": "contractBalance",
          "type": "uint256"
        }
      ],
      "stateMutability": "view",
      "type": "function"
    },
    {
      "inputs": [],
      "name": "getCurrentRaffle",
      "outputs": [
        {
          "internalType": "uint256",
          "name": "roundId",
          "type": "uint256"
        },
        {
          "internalType": "uint256",
          "name": "startTime",
          "type": "uint256"
        },
        {
          "internalType": "uint256",
          "name": "endTime",
          "type": "uint256"
        },
        {
          "internalType": "uint256",
          "name": "participantCount",
          "type": "uint256"
        },
        {
          "internalType": "uint256",
          "name": "uniqueParticipantCount",
          "type": "uint256"
        },
        {
          "internalType": "uint256",
          "name": "prizePool",
          "type": "uint256"
        },
        {
          "internalType": "enum VRF25RaffleEnhanced.RaffleState",
          "name": "state",
          "type": "uint8"
        },
        {
          "internalType": "address",
          "name": "winner",
          "type": "address"
        },
        {
          "internalType": "bool",
          "name": "canDraw",
          "type": "bool"
        }
      ],
      "stateMutability": "view",
      "type": "function"
    },
    {
      "inputs": [
        {
          "internalType": "uint256",
          "name": "limit",
          "type": "uint256"
        }
      ],
      "name": "getRaffleHistory",
      "outputs": [
        {
          "components": [
            {
              "internalType": "uint256",
              "name": "roundId",
              "type": "uint256"
            },
            {
              "internalType": "uint256",
              "name": "startTime",
              "type": "uint256"
            },
            {
              "internalType": "uint256",
              "name": "endTime",
              "type": "uint256"
            },
            {
              "internalType": "uint256",
              "name": "participantCount",
              "type": "uint256"
            },
            {
              "internalType": "uint256",
              "name": "uniqueParticipantCount",
              "type": "uint256"
            },
            {
              "internalType": "uint256",
              "name": "prizePool",
              "type": "uint256"
            },
            {
              "internalType": "enum VRF25RaffleEnhanced.RaffleState",
              "name": "state",
              "type": "uint8"
            },
            {
              "internalType": "address",
              "name": "winner",
              "type": "address"
            },
            {
              "internalType": "bool",
              "name": "prizeClaimed",
              "type": "bool"
            },
            {
              "internalType": "uint256",
              "name": "randomValue",
              "type": "uint256"
            }
          ],
          "internalType": "struct VRF25RaffleEnhanced.RaffleInfo[]",
          "name": "",
          "type": "tuple[]"
        }
      ],
      "stateMutability": "view",
      "type": "function"
    },
    {
      "inputs": [
        {
          "internalType": "uint256",
          "name": "roundId",
          "type": "uint256"
        }
      ],
      "name": "getRaffleRound",
      "outputs": [
        {
          "components": [
            {
              "internalType": "uint256",
              "name": "roundId",
              "type": "uint256"
            },
            {
              "internalType": "uint256",
              "name": "startTime",
              "type": "uint256"
            },
            {
              "internalType": "uint256",
              "name": "endTime",
              "type": "uint256"
            },
            {
              "internalType": "uint256",
              "name": "participantCount",
              "type": "uint256"
            },
            {
              "internalType": "uint256",
              "name": "uniqueParticipantCount",
              "type": "uint256"
            },
            {
              "internalType": "uint256",
              "name": "prizePool",
              "type": "uint256"
            },
            {
              "internalType": "enum VRF25RaffleEnhanced.RaffleState",
              "name": "state",
              "type": "uint8"
            },
            {
              "internalType": "address",
              "name": "winner",
              "type": "address"
            },
            {
              "internalType": "bool",
              "name": "prizeClaimed",
              "type": "bool"
            },
            {
              "internalType": "uint256",
              "name": "randomValue",
              "type": "uint256"
            }
          ],
          "internalType": "struct VRF25RaffleEnhanced.RaffleInfo",
          "name": "",
          "type": "tuple"
        }
      ],
      "stateMutability": "view",
      "type": "function"
    },
    {
      "inputs": [
        {
          "internalType": "uint256",
          "name": "roundId",
          "type": "uint256"
        }
      ],
      "name": "getRoundVRFData",
      "outputs": [
        {
          "internalType": "uint256",
          "name": "randomValue",
          "type": "uint256"
        },
        {
          "internalType": "uint256",
          "name": "vrfRequestId",
          "type": "uint256"
        },
        {
          "internalType": "bool",
          "name": "hasRandomness",
          "type": "bool"
        }
      ],
      "stateMutability": "view",
      "type": "function"
    },
    {
      "inputs": [
        {
          "internalType": "address",
          "name": "user",
          "type": "address"
        }
      ],
      "name": "getUserTicketCount",
      "outputs": [
        {
          "internalType": "uint256",
          "name": "count",
          "type": "uint256"
        }
      ],
      "stateMutability": "view",
      "type": "function"
    },
    {
      "inputs": [
        {
          "internalType": "address",
          "name": "user",
          "type": "address"
        }
      ],
      "name": "getUserWinnings",
      "outputs": [
        {
          "components": [
            {
              "internalType": "uint256",
              "name": "roundId",
              "type": "uint256"
            },
            {
              "internalType": "uint256",
              "name": "prizeAmount",
              "type": "uint256"
            },
            {
              "internalType": "bool",
              "name": "claimed",
              "type": "bool"
            },
            {
              "internalType": "uint256",
              "name": "timestamp",
              "type": "uint256"
            },
            {
              "internalType": "uint256",
              "name": "randomValue",
              "type": "uint256"
            }
          ],
          "internalType": "struct VRF25RaffleEnhanced.UserWinning[]",
          "name": "",
          "type": "tuple[]"
        }
      ],
      "stateMutability": "view",
      "type": "function"
    },
    {
      "inputs": [],
      "name": "isReadyToDraw",
      "outputs": [
        {
          "internalType": "bool",
          "name": "",
          "type": "bool"
        }
      ],
      "stateMutability": "view",
      "type": "function"
    },
    {
      "inputs": [],
      "name": "owner",
      "outputs": [
        {
          "internalType": "address",
          "name": "",
          "type": "address"
        }
      ],
      "stateMutability": "view",
      "type": "function"
    },
    {
      "inputs": [
        {
          "internalType": "uint256",
          "name": "",
          "type": "uint256"
        }
      ],
      "name": "raffleRounds",
      "outputs": [
        {
          "internalType": "uint256",
          "name": "roundId",
          "type": "uint256"
        },
        {
          "internalType": "uint256",
          "name": "startTime",
          "type": "uint256"
        },
        {
          "internalType": "uint256",
          "name": "endTime",
          "type": "uint256"
        },
        {
          "internalType": "uint256",
          "name": "uniqueParticipants",
          "type": "uint256"
        },
        {
          "internalType": "uint256",
          "name": "prizePool",
          "type": "uint256"
        },
        {
          "internalType": "uint256",
          "name": "devFee",
          "type": "uint256"
        },
        {
          "internalType": "enum VRF25RaffleEnhanced.RaffleState",
          "name": "state",
          "type": "uint8"
        },
        {
          "internalType": "address",
          "name": "winner",
          "type": "address"
        },
        {
          "internalType": "uint256",
          "name": "vrfRequestId",
          "type": "uint256"
        },
        {
          "internalType": "uint256",
          "name": "randomValue",
          "type": "uint256"
        },
        {
          "internalType": "bool",
          "name": "prizeClaimed",
          "type": "bool"
        }
      ],
      "stateMutability": "view",
      "type": "function"
    },
    {
      "inputs": [
        {
          "internalType": "uint256",
          "name": "requestId",
          "type": "uint256"
        },
        {
          "internalType": "uint256[]",
          "name": "randomWords",
          "type": "uint256[]"
        }
      ],
      "name": "rawFulfillRandomWords",
      "outputs": [],
      "stateMutability": "nonpayable",
      "type": "function"
    },
    {
      "inputs": [],
      "name": "renounceOwnership",
      "outputs": [],
      "stateMutability": "nonpayable",
      "type": "function"
    },
    {
      "inputs": [],
      "name": "totalDevFees",
      "outputs": [
        {
          "internalType": "uint256",
          "name": "",
          "type": "uint256"
        }
      ],
      "stateMutability": "view",
      "type": "function"
    },
    {
      "inputs": [],
      "name": "totalRoundsCompleted",
      "outputs": [
        {
          "internalType": "uint256",
          "name": "",
          "type": "uint256"
        }
      ],
      "stateMutability": "view",
      "type": "function"
    },
    {
      "inputs": [
        {
          "internalType": "address",
          "name": "newOwner",
          "type": "address"
        }
      ],
      "name": "transferOwnership",
      "outputs": [],
      "stateMutability": "nonpayable",
      "type": "function"
    },
    {
      "inputs": [
        {
          "internalType": "address",
          "name": "newDevWallet",
          "type": "address"
        }
      ],
      "name": "updateDevWallet",
      "outputs": [],
      "stateMutability": "nonpayable",
      "type": "function"
    },
    {
      "inputs": [],
      "name": "withdrawDevFees",
      "outputs": [],
      "stateMutability": "nonpayable",
      "type": "function"
    }
  ],
  "bytecode": "0x60a06040523480156200001157600080fd5b5060405162002026380380620020268339810160408190526200003491620001aa565b33806200005b57604051631e4fbdf760e01b81526000600482015260240160405180910390fd5b6200006681620000cc565b5060018055739ddfaca8183c41ad55329bdeed9f6a8d53168b1b6080526001600160a01b0381166200009957336200009b565b805b600680546001600160a01b0319166001600160a01b0392909216919091179055620000c56200011c565b506200022a565b600080546001600160a01b038381166001600160a01b0319831681178455604051919092169283917f8be0079c531659141344cd1fd0a4f28419497f9722a3daafe3b4186f6b6457e09190a35050565b600280549060006200012e83620001f2565b9091555050600254600081815260036020526040902090815542600182018190556200015e90610258906200020e565b60028281019190915560088201805460ff19169055546040514281527fe1078fbf8122252d4552c2b9c945a0794c0dcfd34277a548cabe558ebb8fb6609060200160405180910390a250565b600060208284031215620001bd57600080fd5b81516001600160a01b0381168114620001d557600080fd5b9392505050565b634e487b7160e01b600052601160045260246000fd5b600060018201620002075762000207620001dc565b5060010190565b80820180821115620002245762000224620001dc565b92915050565b608051611dd96200024d6000396000818161095c01526111490152611dd96000f3fe6080604052600436106101c25760003560e01c80638ea5220f116100f7578063d7781cf011610095578063e6e9ca4111610064578063e6e9ca41146105b5578063f2fde38b146105cb578063fad5f273146105eb578063fc00e6281461060157600080fd5b8063d7781cf01461051c578063db2e21bc14610549578063dfe6b5d61461055e578063e544a5541461059f57600080fd5b80639d6d8fa3116100d15780639d6d8fa3146104a55780639ebb2a81146104d2578063b2185bb1146104e7578063d7098154146104fc57600080fd5b80638ea5220f1461044f578063963ef2a21461046f5780639cbe5efd1461048f57600080fd5b80635684770b116101645780637e50e44b1161013e5780637e50e44b14610362578063830667b51461038c57806384963ded146103b15780638da5cb5b1461041d57600080fd5b80635684770b14610323578063715018a61461033857806374b064aa1461034d57600080fd5b80631b3e0799116101a05780631b3e07991461022c5780631fe543e3146102595780632f3666371461027957806344aca4931461028c57600080fd5b80630da590d4146101c75780631816467f146101de5780631a95f15f146101fe575b600080fd5b3480156101d357600080fd5b506101dc61062d565b005b3480156101ea57600080fd5b506101dc6101f93660046118e5565b61072c565b34801561020a57600080fd5b5061021966038d7ea4c6800081565b6040519081526020015b60405180910390f35b34801561023857600080fd5b5061024c6102473660046118e5565b6107a6565b6040516102239190611915565b34801561026557600080fd5b506101dc610274366004611985565b610951565b6101dc610287366004611a04565b610b13565b34801561029857600080fd5b5061030c6102a7366004611a04565b600360205260009081526040902080546001820154600283015460058401546006850154600786015460088701546009880154600a890154600b9099015497989697959694959394929360ff808416946101009094046001600160a01b03169391168b565b6040516102239b9a99989796959493929190611a55565b34801561032f57600080fd5b50610219600a81565b34801561034457600080fd5b506101dc610d70565b34801561035957600080fd5b50610219605a81565b34801561036e57600080fd5b50610377610d82565b60405161022399989796959493929190611ac3565b34801561039857600080fd5b506103a1610e47565b6040519015158152602001610223565b3480156103bd57600080fd5b506104006103cc366004611a04565b6000908152600360205260409020600a810154600982015460089092015490926101009091046001600160a01b0316151590565b604080519384526020840192909252151590820152606001610223565b34801561042957600080fd5b506000546001600160a01b03165b6040516001600160a01b039091168152602001610223565b34801561045b57600080fd5b50600654610437906001600160a01b031681565b34801561047b57600080fd5b5061021961048a3660046118e5565b610ea9565b34801561049b57600080fd5b5061021960025481565b3480156104b157600080fd5b506104c56104c0366004611a04565b610f28565b6040516102239190611b9d565b3480156104de57600080fd5b50610219600281565b3480156104f357600080fd5b506101dc610fe6565b34801561050857600080fd5b506101dc610517366004611a04565b61122c565b34801561052857600080fd5b5061053c610537366004611a04565b61139a565b6040516102239190611bb2565b34801561055557600080fd5b506101dc6115c5565b34801561056a57600080fd5b50600254600854600754829047604080519586526020860194909452928401919091526060830152608082015260a001610223565b3480156105ab57600080fd5b5061021961025881565b3480156105c157600080fd5b5061021960075481565b3480156105d757600080fd5b506101dc6105e63660046118e5565b611715565b3480156105f757600080fd5b5061021960085481565b34801561060d57600080fd5b506106186007544791565b60408051928352602083019190915201610223565b610635611750565b61063d61177d565b60075460000361066057604051635b3bb77160e01b815260040160405180910390fd5b6007805460009091556006546040518281526001600160a01b03909116907f233035a50c34922302fe772f0768dd765b51b5a27344364899b3ae6e87cd24eb9060200160405180910390a26006546040516000916001600160a01b03169083908381818185875af1925050503d80600081146106f8576040519150601f19603f3d011682016040523d82523d6000602084013e6106fd565b606091505b505090508061071f576040516327fcd9d160e01b815260040160405180910390fd5b505061072a60018055565b565b610734611750565b6001600160a01b0381166107845760405162461bcd60e51b8152602060048201526012602482015271125b9d985b1a590819195d881dd85b1b195d60721b60448201526064015b60405180910390fd5b600680546001600160a01b0319166001600160a01b0392909216919091179055565b6001600160a01b038116600090815260056020908152604080832080548251818502810185019093528083526060949383018282801561080557602002820191906000526020600020905b8154815260200190600101908083116107f1575b505050505090506000815167ffffffffffffffff81111561082857610828611c01565b60405190808252806020026020018201604052801561088d57816020015b61087a6040518060a00160405280600081526020016000815260200160001515815260200160008152602001600081525090565b8152602001906001900390816108465790505b50905060005b82518110156109495760008382815181106108b0576108b0611c17565b6020026020010151905060006003600083815260200190815260200160002090506040518060a001604052808381526020018260060154815260200182600b0160009054906101000a900460ff16151581526020018260020154815260200182600a015481525084848151811061092957610929611c17565b60200260200101819052505050808061094190611c43565b915050610893565b509392505050565b336001600160a01b037f0000000000000000000000000000000000000000000000000000000000000000161461099a57604051636b086b6d60e11b815260040160405180910390fd5b60008381526004602090815260408083205480845260039283905290832091820154909290858583816109cf576109cf611c17565b905060200201356109e09190611c72565b905060008260030182815481106109f9576109f9611c17565b6000918252602082200154600885018054610100600160a81b0319166101006001600160a01b0390931692830217905591508690869081610a3c57610a3c611c17565b60209081029290920135600a860155506008808501805460ff191660021790556001600160a01b038316600090815260058352604081208054600181018255908252928120909201869055805491610a9383611c43565b9190505550806001600160a01b0316847f3d210d5ae36955ded2bdf69bd956eb075b7fd07362288c7df1797cd8eb1199bf856006015489896000818110610adc57610adc611c17565b90506020020135604051610afa929190918252602082015260400190565b60405180910390a3610b0a6117a7565b50505050505050565b610b1b61177d565b600254600090815260036020526040812090600882015460ff166002811115610b4657610b46611a1d565b148015610b565750806002015442115b8015610b72575060038101541580610b72575060028160050154105b15610b9257610b7f6117a7565b5060025460009081526003602052604090205b6000600882015460ff166002811115610bad57610bad611a1d565b14610bcb5760405163ee0eb16d60e01b815260040160405180910390fd5b8060020154421115610bf057604051631b0b29c360e31b815260040160405180910390fd5b610c018266038d7ea4c68000611c86565b3414610c205760405163cd1c886760e01b815260040160405180910390fd5b33600090815260048201602052604090205460ff16610c6b573360009081526004820160205260408120805460ff1916600117905560058201805491610c6583611c43565b91905055505b60005b82811015610caf57600382018054600181018255600091825260209091200180546001600160a01b0319163317905580610ca781611c43565b915050610c6e565b503460006064610cc0605a84611c86565b610cca9190611c9d565b90506000610cd88284611cb1565b905081846006016000828254610cee9190611cc4565b9250508190555080846007016000828254610d099190611cc4565b925050819055508060076000828254610d229190611cc4565b90915550506002546040518681523391907fdbaaf4c87ce30816c961a81d110622a3227ede77953d4383d514ff88ab2e0fd39060200160405180910390a350505050610d6d60018055565b50565b610d78611750565b61072a6000611831565b6002805460009081526003602081905260408220805460018201549482015492820154600583015460068401546008850154969788978897889788978897889788978897949693959360ff81169061010090046001600160a01b03168960088a015460ff166002811115610df857610df8611a1d565b148015610e09575088600201544210155b8015610e185750600389015415155b8015610e2957506002896005015410155b99509950995099509950995099509950995050909192939495969798565b600254600090815260036020526040812081600882015460ff166002811115610e7257610e72611a1d565b148015610e83575080600201544210155b8015610e925750600381015415155b8015610ea357506002816005015410155b91505090565b6002546000908152600360205260408120815b6003820154811015610f2157836001600160a01b0316826003018281548110610ee757610ee7611c17565b6000918252602090912001546001600160a01b031603610f0f5782610f0b81611c43565b9350505b80610f1981611c43565b915050610ebc565b5050919050565b610f30611881565b600082815260036020818152604092839020835161014081018552815481526001820154928101929092526002808201549483019490945291820154606082015260058201546080820152600682015460a082015260088201549192909160c083019160ff90911690811115610fa857610fa8611a1d565b8152600883015461010090046001600160a01b03166020820152600b83015460ff1615156040820152600a9092015460609092019190915292915050565b610fee61177d565b600254600090815260036020526040812090600882015460ff16600281111561101957611019611a1d565b146110375760405163ee0eb16d60e01b815260040160405180910390fd5b806002015442101561105c57604051636ab8c20d60e11b815260040160405180910390fd5b6003810154600003611081576040516308b6a47360e41b815260040160405180910390fd5b6002816005015410156110a7576040516399f46cd560e01b815260040160405180910390fd5b60088101805460ff191660019081179091556040805160c0810182527f787d74caea10b2b357790d5b5247c2f63d1d91572a9846f780606e4d953677ae81527f8cb2435f8c79f84ac380d04899c08d51d6fb98401e48517cecd2f756d6d4a914602080830191909152600382840152620493e06060830152608082019390935281519283018252600080845260a08201939093529051634d8e1c2f60e11b81527f00000000000000000000000000000000000000000000000000000000000000006001600160a01b031691639b1c385e916111859190600401611cd7565b6020604051808303816000875af11580156111a4573d6000803e3d6000fd5b505050506040513d601f19601f820116820180604052508101906111c89190611d73565b600983018190556002546000828152600460205260409081902082905551919250907f3d94fecedaa4f90b8bd459797adb95f5bb11426025c5541390d9ccc1ad1b60a1906112199084815260200190565b60405180910390a2505061072a60018055565b61123461177d565b6000818152600360205260409020600881015461010090046001600160a01b031633146112745760405163163e5ab360e31b815260040160405180910390fd5b600b81015460ff161561129a5760405163611ab18960e11b815260040160405180910390fd5b6002600882015460ff1660028111156112b5576112b5611a1d565b146112d35760405163bfbe031f60e01b815260040160405180910390fd5b600b8101805460ff191660011790556006810154604051339084907f4aa95f981a8337cb337de335b965507da0879c3b49f799d20058e913f5ad2c269061131d9085815260200190565b60405180910390a3604051600090339083908381818185875af1925050503d8060008114611367576040519150601f19603f3d011682016040523d82523d6000602084013e61136c565b606091505b505090508061138e576040516327fcd9d160e01b815260040160405180910390fd5b505050610d6d60018055565b6060816000036113a957600a91505b60008080600254116113bc5760006113cb565b60016002546113cb9190611cb1565b9050805b6000811180156113de57508483105b1561143057600260008281526003602052604090206008015460ff16600281111561140b5761140b611a1d565b0361141e578261141a81611c43565b9350505b8061142881611d8c565b9150506113cf565b5060008267ffffffffffffffff81111561144c5761144c611c01565b60405190808252806020026020018201604052801561148557816020015b611472611881565b81526020019060019003908161146a5790505b5090506000825b60008111801561149b57508482105b156115ba57600260008281526003602052604090206008015460ff1660028111156114c8576114c8611a1d565b036115a857600081815260036020818152604092839020835161014081018552815481526001820154928101929092526002808201549483019490945291820154606082015260058201546080820152600682015460a082015260088201549192909160c083019160ff9091169081111561154557611545611a1d565b8152600883015461010090046001600160a01b03166020820152600b83015460ff1615156040820152600a830154606090910152845185908590811061158d5761158d611c17565b602002602001018190525082806115a390611c43565b935050505b806115b281611d8c565b91505061148c565b509095945050505050565b6115cd611750565b60025460009081526003602081905260409091200154156116275760405162461bcd60e51b815260206004820152601460248201527341637469766520726166666c652065786973747360601b604482015260640161077b565b478061166e5760405162461bcd60e51b81526020600482015260166024820152754e6f2062616c616e636520746f20776974686472617760501b604482015260640161077b565b600080546040516001600160a01b039091169083908381818185875af1925050503d80600081146116bb576040519150601f19603f3d011682016040523d82523d6000602084013e6116c0565b606091505b50509050806117115760405162461bcd60e51b815260206004820152601b60248201527f456d657267656e6379207769746864726177616c206661696c65640000000000604482015260640161077b565b5050565b61171d611750565b6001600160a01b03811661174757604051631e4fbdf760e01b81526000600482015260240161077b565b610d6d81611831565b6000546001600160a01b0316331461072a5760405163118cdaa760e01b815233600482015260240161077b565b6002600154036117a057604051633ee5aeb560e01b815260040160405180910390fd5b6002600155565b600280549060006117b783611c43565b9091555050600254600081815260036020526040902090815542600182018190556117e59061025890611cc4565b60028281019190915560088201805460ff19169055546040514281527fe1078fbf8122252d4552c2b9c945a0794c0dcfd34277a548cabe558ebb8fb6609060200160405180910390a250565b600080546001600160a01b038381166001600160a01b0319831681178455604051919092169283917f8be0079c531659141344cd1fd0a4f28419497f9722a3daafe3b4186f6b6457e09190a35050565b604051806101400160405280600081526020016000815260200160008152602001600081526020016000815260200160008152602001600060028111156118ca576118ca611a1d565b81526000602082018190526040820181905260609091015290565b6000602082840312156118f757600080fd5b81356001600160a01b038116811461190e57600080fd5b9392505050565b602080825282518282018190526000919060409081850190868401855b8281101561197857815180518552868101518786015285810151151586860152606080820151908601526080908101519085015260a09093019290850190600101611932565b5091979650505050505050565b60008060006040848603121561199a57600080fd5b83359250602084013567ffffffffffffffff808211156119b957600080fd5b818601915086601f8301126119cd57600080fd5b8135818111156119dc57600080fd5b8760208260051b85010111156119f157600080fd5b6020830194508093505050509250925092565b600060208284031215611a1657600080fd5b5035919050565b634e487b7160e01b600052602160045260246000fd5b60038110611a5157634e487b7160e01b600052602160045260246000fd5b9052565b6000610160820190508c82528b60208301528a60408301528960608301528860808301528760a0830152611a8c60c0830188611a33565b6001600160a01b039590951660e0820152610100810193909352610120830191909152151561014090910152979650505050505050565b6000610120820190508a82528960208301528860408301528760608301528660808301528560a0830152611afa60c0830186611a33565b6001600160a01b039390931660e082015290151561010090910152979650505050505050565b805182526020810151602083015260408101516040830152606081015160608301526080810151608083015260a081015160a083015260c0810151611b6860c0840182611a33565b5060e0810151611b8360e08401826001600160a01b03169052565b506101008181015115159083015261012090810151910152565b6101408101611bac8284611b20565b92915050565b6020808252825182820181905260009190848201906040850190845b81811015611bf557611be1838551611b20565b928401926101409290920191600101611bce565b50909695505050505050565b634e487b7160e01b600052604160045260246000fd5b634e487b7160e01b600052603260045260246000fd5b634e487b7160e01b600052601160045260246000fd5b600060018201611c5557611c55611c2d565b5060010190565b634e487b7160e01b600052601260045260246000fd5b600082611c8157611c81611c5c565b500690565b8082028115828204841417611bac57611bac611c2d565b600082611cac57611cac611c5c565b500490565b81810381811115611bac57611bac611c2d565b80820180821115611bac57611bac611c2d565b6000602080835283518184015280840151604084015261ffff6040850151166060840152606084015163ffffffff80821660808601528060808701511660a0860152505060a084015160c08085015280518060e086015260005b81811015611d4e5782810184015186820161010001528301611d31565b506101009250600083828701015282601f19601f830116860101935050505092915050565b600060208284031215611d8557600080fd5b5051919050565b600081611d9b57611d9b611c2d565b50600019019056fea2646970667358221220f258e426be85881ad06a2286a1aff6908c3e879f86c2867a727ac3ffa14d7db964736f6c63430008140033",
  "linkReferences": {},
  "deployedLinkReferences": {}
}