{
  "_format": "hh-sol-artifact-1",
  "contractName": "ContinuousChainlinkRaffle",
  "sourceName": "contracts/ContinuousChainlinkRaffle.sol",
  "abi": [
    {
      "inputs": [
        {
          "internalType": "uint64",
          "name": "_subscriptionId",
          "type": "uint64"
        },
        {
          "internalType": "address",
          "name": "_vrfCoordinator",
          "type": "address"
        },
        {
          "internalType": "bytes32",
          "name": "_keyHash",
          "type": "bytes32"
        }
      ],
      "stateMutability": "nonpayable",
      "type": "constructor"
    },
    {
      "inputs": [],
      "name": "EnforcedPause",
      "type": "error"
    },
    {
      "inputs": [],
      "name": "ExpectedPause",
      "type": "error"
    },
    {
      "inputs": [
        {
          "internalType": "address",
          "name": "have",
          "type": "address"
        },
        {
          "internalType": "address",
          "name": "want",
          "type": "address"
        }
      ],
      "name": "OnlyCoordinatorCanFulfill",
      "type": "error"
    },
    {
      "inputs": [],
      "name": "OnlySimulatedBackend",
      "type": "error"
    },
    {
      "inputs": [
        {
          "internalType": "address",
          "name": "owner",
          "type": "address"
        }
      ],
      "name": "OwnableInvalidOwner",
      "type": "error"
    },
    {
      "inputs": [
        {
          "internalType": "address",
          "name": "account",
          "type": "address"
        }
      ],
      "name": "OwnableUnauthorizedAccount",
      "type": "error"
    },
    {
      "inputs": [],
      "name": "ReentrancyGuardReentrantCall",
      "type": "error"
    },
    {
      "anonymous": false,
      "inputs": [
        {
          "indexed": true,
          "internalType": "uint256",
          "name": "roundId",
          "type": "uint256"
        },
        {
          "indexed": false,
          "internalType": "uint256",
          "name": "participants",
          "type": "uint256"
        },
        {
          "indexed": false,
          "internalType": "uint256",
          "name": "duration",
          "type": "uint256"
        },
        {
          "indexed": false,
          "internalType": "string",
          "name": "reason",
          "type": "string"
        }
      ],
      "name": "AutomationTriggered",
      "type": "event"
    },
    {
      "anonymous": false,
      "inputs": [
        {
          "indexed": true,
          "internalType": "address",
          "name": "previousOwner",
          "type": "address"
        },
        {
          "indexed": true,
          "internalType": "address",
          "name": "newOwner",
          "type": "address"
        }
      ],
      "name": "OwnershipTransferred",
      "type": "event"
    },
    {
      "anonymous": false,
      "inputs": [
        {
          "indexed": false,
          "internalType": "address",
          "name": "account",
          "type": "address"
        }
      ],
      "name": "Paused",
      "type": "event"
    },
    {
      "anonymous": false,
      "inputs": [
        {
          "indexed": true,
          "internalType": "uint256",
          "name": "roundId",
          "type": "uint256"
        },
        {
          "indexed": true,
          "internalType": "address",
          "name": "winner",
          "type": "address"
        },
        {
          "indexed": false,
          "internalType": "uint256",
          "name": "amount",
          "type": "uint256"
        }
      ],
      "name": "PrizeWithdrawn",
      "type": "event"
    },
    {
      "anonymous": false,
      "inputs": [
        {
          "indexed": true,
          "internalType": "uint256",
          "name": "roundId",
          "type": "uint256"
        },
        {
          "indexed": false,
          "internalType": "uint256",
          "name": "startTime",
          "type": "uint256"
        }
      ],
      "name": "RaffleStarted",
      "type": "event"
    },
    {
      "anonymous": false,
      "inputs": [
        {
          "indexed": true,
          "internalType": "uint256",
          "name": "roundId",
          "type": "uint256"
        },
        {
          "indexed": false,
          "internalType": "enum ContinuousChainlinkRaffle.RaffleState",
          "name": "newState",
          "type": "uint8"
        }
      ],
      "name": "RaffleStateChanged",
      "type": "event"
    },
    {
      "anonymous": false,
      "inputs": [
        {
          "indexed": true,
          "internalType": "address",
          "name": "participant",
          "type": "address"
        },
        {
          "indexed": true,
          "internalType": "uint256",
          "name": "roundId",
          "type": "uint256"
        },
        {
          "indexed": false,
          "internalType": "uint256",
          "name": "ticketCount",
          "type": "uint256"
        },
        {
          "indexed": false,
          "internalType": "uint256",
          "name": "totalSpent",
          "type": "uint256"
        },
        {
          "indexed": false,
          "internalType": "uint256",
          "name": "newTotalTickets",
          "type": "uint256"
        }
      ],
      "name": "TicketPurchased",
      "type": "event"
    },
    {
      "anonymous": false,
      "inputs": [
        {
          "indexed": false,
          "internalType": "address",
          "name": "account",
          "type": "address"
        }
      ],
      "name": "Unpaused",
      "type": "event"
    },
    {
      "anonymous": false,
      "inputs": [
        {
          "indexed": true,
          "internalType": "uint256",
          "name": "roundId",
          "type": "uint256"
        },
        {
          "indexed": false,
          "internalType": "uint256",
          "name": "vrfRequestId",
          "type": "uint256"
        },
        {
          "indexed": false,
          "internalType": "uint256",
          "name": "totalParticipants",
          "type": "uint256"
        },
        {
          "indexed": false,
          "internalType": "uint256",
          "name": "totalPrizePool",
          "type": "uint256"
        }
      ],
      "name": "WinnerDrawInitiated",
      "type": "event"
    },
    {
      "anonymous": false,
      "inputs": [
        {
          "indexed": true,
          "internalType": "uint256",
          "name": "roundId",
          "type": "uint256"
        },
        {
          "indexed": true,
          "internalType": "address",
          "name": "winner",
          "type": "address"
        },
        {
          "indexed": false,
          "internalType": "uint256",
          "name": "prizeAmount",
          "type": "uint256"
        },
        {
          "indexed": false,
          "internalType": "uint256",
          "name": "randomWord",
          "type": "uint256"
        },
        {
          "indexed": false,
          "internalType": "string",
          "name": "proofHash",
          "type": "string"
        }
      ],
      "name": "WinnerSelected",
      "type": "event"
    },
    {
      "inputs": [],
      "name": "MAX_DURATION",
      "outputs": [
        {
          "internalType": "uint256",
          "name": "",
          "type": "uint256"
        }
      ],
      "stateMutability": "view",
      "type": "function"
    },
    {
      "inputs": [],
      "name": "MIN_DURATION",
      "outputs": [
        {
          "internalType": "uint256",
          "name": "",
          "type": "uint256"
        }
      ],
      "stateMutability": "view",
      "type": "function"
    },
    {
      "inputs": [],
      "name": "MIN_PARTICIPANTS",
      "outputs": [
        {
          "internalType": "uint256",
          "name": "",
          "type": "uint256"
        }
      ],
      "stateMutability": "view",
      "type": "function"
    },
    {
      "inputs": [],
      "name": "PLATFORM_FEE",
      "outputs": [
        {
          "internalType": "uint256",
          "name": "",
          "type": "uint256"
        }
      ],
      "stateMutability": "view",
      "type": "function"
    },
    {
      "inputs": [],
      "name": "TICKET_PRICE",
      "outputs": [
        {
          "internalType": "uint256",
          "name": "",
          "type": "uint256"
        }
      ],
      "stateMutability": "view",
      "type": "function"
    },
    {
      "inputs": [],
      "name": "WINNER_PERCENTAGE",
      "outputs": [
        {
          "internalType": "uint256",
          "name": "",
          "type": "uint256"
        }
      ],
      "stateMutability": "view",
      "type": "function"
    },
    {
      "inputs": [
        {
          "internalType": "uint256",
          "name": "_ticketCount",
          "type": "uint256"
        }
      ],
      "name": "buyTickets",
      "outputs": [],
      "stateMutability": "payable",
      "type": "function"
    },
    {
      "inputs": [
        {
          "internalType": "bytes",
          "name": "",
          "type": "bytes"
        }
      ],
      "name": "checkUpkeep",
      "outputs": [
        {
          "internalType": "bool",
          "name": "upkeepNeeded",
          "type": "bool"
        },
        {
          "internalType": "bytes",
          "name": "performData",
          "type": "bytes"
        }
      ],
      "stateMutability": "view",
      "type": "function"
    },
    {
      "inputs": [
        {
          "internalType": "uint256",
          "name": "",
          "type": "uint256"
        }
      ],
      "name": "currentParticipants",
      "outputs": [
        {
          "internalType": "address",
          "name": "",
          "type": "address"
        }
      ],
      "stateMutability": "view",
      "type": "function"
    },
    {
      "inputs": [],
      "name": "currentPrizePool",
      "outputs": [
        {
          "internalType": "uint256",
          "name": "",
          "type": "uint256"
        }
      ],
      "stateMutability": "view",
      "type": "function"
    },
    {
      "inputs": [],
      "name": "currentRoundId",
      "outputs": [
        {
          "internalType": "uint256",
          "name": "",
          "type": "uint256"
        }
      ],
      "stateMutability": "view",
      "type": "function"
    },
    {
      "inputs": [],
      "name": "currentState",
      "outputs": [
        {
          "internalType": "enum ContinuousChainlinkRaffle.RaffleState",
          "name": "",
          "type": "uint8"
        }
      ],
      "stateMutability": "view",
      "type": "function"
    },
    {
      "inputs": [
        {
          "internalType": "address",
          "name": "",
          "type": "address"
        }
      ],
      "name": "currentTicketCounts",
      "outputs": [
        {
          "internalType": "uint256",
          "name": "",
          "type": "uint256"
        }
      ],
      "stateMutability": "view",
      "type": "function"
    },
    {
      "inputs": [],
      "name": "currentVrfRequestId",
      "outputs": [
        {
          "internalType": "uint256",
          "name": "",
          "type": "uint256"
        }
      ],
      "stateMutability": "view",
      "type": "function"
    },
    {
      "inputs": [],
      "name": "getCurrentParticipants",
      "outputs": [
        {
          "components": [
            {
              "internalType": "address",
              "name": "participant",
              "type": "address"
            },
            {
              "internalType": "uint256",
              "name": "ticketCount",
              "type": "uint256"
            },
            {
              "internalType": "uint256",
              "name": "totalSpent",
              "type": "uint256"
            }
          ],
          "internalType": "struct ContinuousChainlinkRaffle.ParticipantInfo[]",
          "name": "",
          "type": "tuple[]"
        }
      ],
      "stateMutability": "view",
      "type": "function"
    },
    {
      "inputs": [],
      "name": "getCurrentRaffleInfo",
      "outputs": [
        {
          "internalType": "uint256",
          "name": "roundId",
          "type": "uint256"
        },
        {
          "internalType": "uint256",
          "name": "startTime",
          "type": "uint256"
        },
        {
          "internalType": "uint256",
          "name": "participants",
          "type": "uint256"
        },
        {
          "internalType": "uint256",
          "name": "prizePool",
          "type": "uint256"
        },
        {
          "internalType": "enum ContinuousChainlinkRaffle.RaffleState",
          "name": "state",
          "type": "uint8"
        },
        {
          "internalType": "uint256",
          "name": "timeRemaining",
          "type": "uint256"
        }
      ],
      "stateMutability": "view",
      "type": "function"
    },
    {
      "inputs": [
        {
          "internalType": "address",
          "name": "_user",
          "type": "address"
        }
      ],
      "name": "getPendingWithdrawal",
      "outputs": [
        {
          "internalType": "uint256",
          "name": "",
          "type": "uint256"
        }
      ],
      "stateMutability": "view",
      "type": "function"
    },
    {
      "inputs": [],
      "name": "getStatistics",
      "outputs": [
        {
          "internalType": "uint256",
          "name": "totalRaffles",
          "type": "uint256"
        },
        {
          "internalType": "uint256",
          "name": "totalPrizes",
          "type": "uint256"
        },
        {
          "internalType": "uint256",
          "name": "totalTickets",
          "type": "uint256"
        },
        {
          "internalType": "uint256",
          "name": "totalFees",
          "type": "uint256"
        },
        {
          "internalType": "uint256",
          "name": "currentRound",
          "type": "uint256"
        },
        {
          "internalType": "uint256",
          "name": "activeParticipants",
          "type": "uint256"
        },
        {
          "internalType": "uint256",
          "name": "currentPrize",
          "type": "uint256"
        }
      ],
      "stateMutability": "view",
      "type": "function"
    },
    {
      "inputs": [
        {
          "internalType": "address",
          "name": "_user",
          "type": "address"
        }
      ],
      "name": "getUserParticipations",
      "outputs": [
        {
          "internalType": "uint256[]",
          "name": "",
          "type": "uint256[]"
        }
      ],
      "stateMutability": "view",
      "type": "function"
    },
    {
      "inputs": [
        {
          "internalType": "uint256",
          "name": "_limit",
          "type": "uint256"
        }
      ],
      "name": "getWinnerHistory",
      "outputs": [
        {
          "components": [
            {
              "internalType": "uint256",
              "name": "roundId",
              "type": "uint256"
            },
            {
              "internalType": "address",
              "name": "winner",
              "type": "address"
            },
            {
              "internalType": "uint256",
              "name": "prizeAmount",
              "type": "uint256"
            },
            {
              "internalType": "uint256",
              "name": "timestamp",
              "type": "uint256"
            },
            {
              "internalType": "uint256",
              "name": "randomWord",
              "type": "uint256"
            },
            {
              "internalType": "bool",
              "name": "withdrawn",
              "type": "bool"
            },
            {
              "internalType": "string",
              "name": "proofHash",
              "type": "string"
            }
          ],
          "internalType": "struct ContinuousChainlinkRaffle.WinnerInfo[]",
          "name": "",
          "type": "tuple[]"
        }
      ],
      "stateMutability": "view",
      "type": "function"
    },
    {
      "inputs": [
        {
          "internalType": "address",
          "name": "",
          "type": "address"
        }
      ],
      "name": "isCurrentParticipant",
      "outputs": [
        {
          "internalType": "bool",
          "name": "",
          "type": "bool"
        }
      ],
      "stateMutability": "view",
      "type": "function"
    },
    {
      "inputs": [],
      "name": "manualDrawWinner",
      "outputs": [],
      "stateMutability": "nonpayable",
      "type": "function"
    },
    {
      "inputs": [],
      "name": "owner",
      "outputs": [
        {
          "internalType": "address",
          "name": "",
          "type": "address"
        }
      ],
      "stateMutability": "view",
      "type": "function"
    },
    {
      "inputs": [],
      "name": "pauseRaffle",
      "outputs": [],
      "stateMutability": "nonpayable",
      "type": "function"
    },
    {
      "inputs": [],
      "name": "paused",
      "outputs": [
        {
          "internalType": "bool",
          "name": "",
          "type": "bool"
        }
      ],
      "stateMutability": "view",
      "type": "function"
    },
    {
      "inputs": [
        {
          "internalType": "address",
          "name": "",
          "type": "address"
        }
      ],
      "name": "pendingWithdrawals",
      "outputs": [
        {
          "internalType": "uint256",
          "name": "",
          "type": "uint256"
        }
      ],
      "stateMutability": "view",
      "type": "function"
    },
    {
      "inputs": [
        {
          "internalType": "bytes",
          "name": "performData",
          "type": "bytes"
        }
      ],
      "name": "performUpkeep",
      "outputs": [],
      "stateMutability": "nonpayable",
      "type": "function"
    },
    {
      "inputs": [
        {
          "internalType": "uint256",
          "name": "",
          "type": "uint256"
        }
      ],
      "name": "raffleRounds",
      "outputs": [
        {
          "internalType": "uint256",
          "name": "roundId",
          "type": "uint256"
        },
        {
          "internalType": "uint256",
          "name": "startTime",
          "type": "uint256"
        },
        {
          "internalType": "uint256",
          "name": "endTime",
          "type": "uint256"
        },
        {
          "internalType": "address",
          "name": "winner",
          "type": "address"
        },
        {
          "internalType": "uint256",
          "name": "totalPrize",
          "type": "uint256"
        },
        {
          "internalType": "uint256",
          "name": "totalTickets",
          "type": "uint256"
        },
        {
          "internalType": "uint256",
          "name": "vrfRequestId",
          "type": "uint256"
        },
        {
          "internalType": "uint256",
          "name": "randomWord",
          "type": "uint256"
        },
        {
          "internalType": "bool",
          "name": "prizeWithdrawn",
          "type": "bool"
        },
        {
          "internalType": "enum ContinuousChainlinkRaffle.RaffleState",
          "name": "state",
          "type": "uint8"
        }
      ],
      "stateMutability": "view",
      "type": "function"
    },
    {
      "inputs": [
        {
          "internalType": "uint256",
          "name": "requestId",
          "type": "uint256"
        },
        {
          "internalType": "uint256[]",
          "name": "randomWords",
          "type": "uint256[]"
        }
      ],
      "name": "rawFulfillRandomWords",
      "outputs": [],
      "stateMutability": "nonpayable",
      "type": "function"
    },
    {
      "inputs": [],
      "name": "renounceOwnership",
      "outputs": [],
      "stateMutability": "nonpayable",
      "type": "function"
    },
    {
      "inputs": [
        {
          "internalType": "uint256",
          "name": "",
          "type": "uint256"
        }
      ],
      "name": "roundWinnerClaimed",
      "outputs": [
        {
          "internalType": "bool",
          "name": "",
          "type": "bool"
        }
      ],
      "stateMutability": "view",
      "type": "function"
    },
    {
      "inputs": [],
      "name": "totalPlatformFeesCollected",
      "outputs": [
        {
          "internalType": "uint256",
          "name": "",
          "type": "uint256"
        }
      ],
      "stateMutability": "view",
      "type": "function"
    },
    {
      "inputs": [],
      "name": "totalPrizesDistributed",
      "outputs": [
        {
          "internalType": "uint256",
          "name": "",
          "type": "uint256"
        }
      ],
      "stateMutability": "view",
      "type": "function"
    },
    {
      "inputs": [],
      "name": "totalRafflesCompleted",
      "outputs": [
        {
          "internalType": "uint256",
          "name": "",
          "type": "uint256"
        }
      ],
      "stateMutability": "view",
      "type": "function"
    },
    {
      "inputs": [],
      "name": "totalTicketsSold",
      "outputs": [
        {
          "internalType": "uint256",
          "name": "",
          "type": "uint256"
        }
      ],
      "stateMutability": "view",
      "type": "function"
    },
    {
      "inputs": [
        {
          "internalType": "address",
          "name": "newOwner",
          "type": "address"
        }
      ],
      "name": "transferOwnership",
      "outputs": [],
      "stateMutability": "nonpayable",
      "type": "function"
    },
    {
      "inputs": [],
      "name": "uniqueParticipantCount",
      "outputs": [
        {
          "internalType": "uint256",
          "name": "",
          "type": "uint256"
        }
      ],
      "stateMutability": "view",
      "type": "function"
    },
    {
      "inputs": [],
      "name": "unpauseRaffle",
      "outputs": [],
      "stateMutability": "nonpayable",
      "type": "function"
    },
    {
      "inputs": [
        {
          "internalType": "address",
          "name": "",
          "type": "address"
        },
        {
          "internalType": "uint256",
          "name": "",
          "type": "uint256"
        }
      ],
      "name": "userParticipations",
      "outputs": [
        {
          "internalType": "uint256",
          "name": "",
          "type": "uint256"
        }
      ],
      "stateMutability": "view",
      "type": "function"
    },
    {
      "inputs": [
        {
          "internalType": "uint256",
          "name": "_roundId",
          "type": "uint256"
        }
      ],
      "name": "verifyWinner",
      "outputs": [
        {
          "internalType": "address",
          "name": "winner",
          "type": "address"
        },
        {
          "internalType": "uint256",
          "name": "prizeAmount",
          "type": "uint256"
        },
        {
          "internalType": "uint256",
          "name": "randomWord",
          "type": "uint256"
        },
        {
          "internalType": "string",
          "name": "proofHash",
          "type": "string"
        },
        {
          "internalType": "bool",
          "name": "isVerified",
          "type": "bool"
        }
      ],
      "stateMutability": "view",
      "type": "function"
    },
    {
      "inputs": [
        {
          "internalType": "uint256",
          "name": "",
          "type": "uint256"
        }
      ],
      "name": "vrfRequestToRoundId",
      "outputs": [
        {
          "internalType": "uint256",
          "name": "",
          "type": "uint256"
        }
      ],
      "stateMutability": "view",
      "type": "function"
    },
    {
      "inputs": [
        {
          "internalType": "uint256",
          "name": "",
          "type": "uint256"
        }
      ],
      "name": "winnerHistory",
      "outputs": [
        {
          "internalType": "uint256",
          "name": "roundId",
          "type": "uint256"
        },
        {
          "internalType": "address",
          "name": "winner",
          "type": "address"
        },
        {
          "internalType": "uint256",
          "name": "prizeAmount",
          "type": "uint256"
        },
        {
          "internalType": "uint256",
          "name": "timestamp",
          "type": "uint256"
        },
        {
          "internalType": "uint256",
          "name": "randomWord",
          "type": "uint256"
        },
        {
          "internalType": "bool",
          "name": "withdrawn",
          "type": "bool"
        },
        {
          "internalType": "string",
          "name": "proofHash",
          "type": "string"
        }
      ],
      "stateMutability": "view",
      "type": "function"
    },
    {
      "inputs": [],
      "name": "withdrawPlatformFees",
      "outputs": [],
      "stateMutability": "nonpayable",
      "type": "function"
    },
    {
      "inputs": [],
      "name": "withdrawPrize",
      "outputs": [],
      "stateMutability": "nonpayable",
      "type": "function"
    },
    {
      "stateMutability": "payable",
      "type": "receive"
    }
  ],
  "bytecode": "0x61010060405234801561001157600080fd5b50604051613542380380613542833981016040819052610030916102a6565b6001600160a01b0382166080526001600055338061006857604051631e4fbdf760e01b81526000600482015260240160405180910390fd5b610071816100a1565b506001600160a01b03821660a0526001600160401b03831660c05260e08190526100996100f3565b505050610366565b600180546001600160a01b038381166001600160a01b0319831681179093556040519116919082907f8be0079c531659141344cd1fd0a4f28419497f9722a3daafe3b4186f6b6457e090600090a35050565b6002805490600061010383610301565b9091555061011590506007600061026c565b6000600b819055600a819055600c805460ff19169055600d8190555b6007548110156101c657600860006007838154811061015257610152610328565b60009182526020808320909101546001600160a01b0316835282019290925260400181208190556007805460099291908490811061019257610192610328565b60009182526020808320909101546001600160a01b031683528201929092526040019020805460ff19169055600101610131565b506002805460008181526003602090815260408083209384554260019094018490558454835291829020600a01805461ff001916905592549051918252917fe1078fbf8122252d4552c2b9c945a0794c0dcfd34277a548cabe558ebb8fb660910160405180910390a26002547f30d620e139a09aa5966cb24772df5a5612220e1e5aa3b9b6230293551fae6fb66000604051610262919061033e565b60405180910390a2565b508054600082559060005260206000209081019061028a919061028d565b50565b5b808211156102a2576000815560010161028e565b5090565b6000806000606084860312156102bb57600080fd5b83516001600160401b03811681146102d257600080fd5b60208501519093506001600160a01b03811681146102ef57600080fd5b80925050604084015190509250925092565b60006001820161032157634e487b7160e01b600052601160045260246000fd5b5060010190565b634e487b7160e01b600052603260045260246000fd5b602081016003831061036057634e487b7160e01b600052602160045260246000fd5b91905290565b60805160a05160c05160e05161319c6103a66000396000612190015260006121bf015260006122000152600081816108c60152610908015261319c6000f3fe60806040526004361061026b5760003560e01c80637fcf8a4f11610144578063b9720352116100b6578063e86ba67a1161007a578063e86ba67a146107fc578063ec6eef1814610811578063ef84325514610842578063f2fde38b14610858578063f3f4370314610878578063f69e6ab0146108a557600080fd5b8063b972035214610756578063c5991e3214610783578063d0b7830b146107a5578063d34e4b20146107ba578063e62ffd22146107e757600080fd5b80639cbe5efd116101085780639cbe5efd146106b0578063a782f9c9146106c6578063affc37ea146106e6578063b0d1645f146106fc578063b1724b4614610729578063b6a6d1771461074057600080fd5b80637fcf8a4f1461060c57806382c3188c146106335780638b0b4d3b146106495780638da5cb5b1461065e57806396458a3c1461069057600080fd5b806344aca493116101dd578063675f8aea116101a1578063675f8aea1461051d5780636e04ff0d14610533578063715018a61461056157806374f7c6c61461057657806375964b55146105a35780637ee8b2f8146105d657600080fd5b806344aca493146104075780634585e33b1461049957806348d37a58146104b95780635c975abb146104ce578063662bb748146104ed57600080fd5b80633038c6461161022f5780633038c6461461034557806334701db81461035b57806334fbc9a114610371578063372d6b27146103865780633a5a1d8f146103dd5780633a984bc5146103f257600080fd5b80630c3f6acf146102775780630cecfa1a146102a75780631a95f15f146102e75780631fe543e3146103105780632f3666371461033257600080fd5b3661027257005b600080fd5b34801561028357600080fd5b50600c546102919060ff1681565b60405161029e9190612985565b60405180910390f35b3480156102b357600080fd5b506102d76102c23660046129af565b60096020526000908152604090205460ff1681565b604051901515815260200161029e565b3480156102f357600080fd5b50610302662386f26fc1000081565b60405190815260200161029e565b34801561031c57600080fd5b5061033061032b366004612a18565b6108bb565b005b610330610340366004612ad5565b610948565b34801561035157600080fd5b50610302600e5481565b34801561036757600080fd5b5061030260105481565b34801561037d57600080fd5b50610302600a81565b34801561039257600080fd5b50600e54600f54601054601154600254600b54600a54604080519788526020880196909652948601939093526060850191909152608084015260a083015260c082015260e00161029e565b3480156103e957600080fd5b50610330610c3c565b3480156103fe57600080fd5b50610302600281565b34801561041357600080fd5b50610483610422366004612ad5565b600360205260009081526040902080546001820154600283015460058401546006850154600786015460088701546009880154600a909801549697959694956001600160a01b03909416949293919290919060ff808216916101009004168a565b60405161029e9a99989796959493929190612aee565b3480156104a557600080fd5b506103306104b4366004612b55565b610cf3565b3480156104c557600080fd5b50610330610e4b565b3480156104da57600080fd5b50600154600160a01b900460ff166102d7565b3480156104f957600080fd5b506102d7610508366004612ad5565b60136020526000908152604090205460ff1681565b34801561052957600080fd5b50610302600a5481565b34801561053f57600080fd5b5061055361054e366004612b55565b6110de565b60405161029e929190612c0f565b34801561056d57600080fd5b50610330611226565b34801561058257600080fd5b506103026105913660046129af565b60086020526000908152604090205481565b3480156105af57600080fd5b506105c36105be366004612ad5565b611238565b60405161029e9796959493929190612c2a565b3480156105e257600080fd5b506103026105f13660046129af565b6001600160a01b031660009081526006602052604090205490565b34801561061857600080fd5b50610621611323565b60405161029e96959493929190612c78565b34801561063f57600080fd5b5061030260115481565b34801561065557600080fd5b50610330611385565b34801561066a57600080fd5b506001546001600160a01b03165b6040516001600160a01b03909116815260200161029e565b34801561069c57600080fd5b506106786106ab366004612ad5565b611395565b3480156106bc57600080fd5b5061030260025481565b3480156106d257600080fd5b506103026106e1366004612cb3565b6113bf565b3480156106f257600080fd5b50610302600b5481565b34801561070857600080fd5b5061071c6107173660046129af565b6113f0565b60405161029e9190612cdd565b34801561073557600080fd5b506103026201518081565b34801561074c57600080fd5b5061030261025881565b34801561076257600080fd5b50610302610771366004612ad5565b60046020526000908152604090205481565b34801561078f57600080fd5b5061079861145c565b60405161029e9190612d20565b3480156107b157600080fd5b50610330611588565b3480156107c657600080fd5b506107da6107d5366004612ad5565b61172f565b60405161029e9190612d7a565b3480156107f357600080fd5b5061033061193f565b34801561080857600080fd5b50610302605a81565b34801561081d57600080fd5b5061083161082c366004612ad5565b61194f565b60405161029e959493929190612e32565b34801561084e57600080fd5b50610302600d5481565b34801561086457600080fd5b506103306108733660046129af565b611af6565b34801561088457600080fd5b506103026108933660046129af565b60066020526000908152604090205481565b3480156108b157600080fd5b50610302600f5481565b336001600160a01b037f0000000000000000000000000000000000000000000000000000000000000000161461093a5760405163073e64fd60e21b81523360048201526001600160a01b037f00000000000000000000000000000000000000000000000000000000000000001660248201526044015b60405180910390fd5b6109448282611b31565b5050565b610950611f6a565b610958611f94565b600081116109a85760405162461bcd60e51b815260206004820152601a60248201527f4d75737420627579206174206c656173742031207469636b65740000000000006044820152606401610931565b6064811115610a055760405162461bcd60e51b815260206004820152602360248201527f4d6178696d756d20313030207469636b65747320706572207472616e7361637460448201526234b7b760e91b6064820152608401610931565b6000600c5460ff166002811115610a1e57610a1e61294d565b14610a6b5760405162461bcd60e51b815260206004820152601c60248201527f526166666c65206e6f7420616363657074696e67207469636b657473000000006044820152606401610931565b610a7c81662386f26fc10000612e89565b3414610aca5760405162461bcd60e51b815260206004820152601860248201527f496e636f7272656374207061796d656e7420616d6f756e7400000000000000006044820152606401610931565b3360009081526009602052604090205460ff16610b50576007805460018181019092557fa66cc928b5edb82af9bd49922954155ab7b0942694bea4ce44661d9a8736c6880180546001600160a01b031916339081179091556000908152600960205260408120805460ff1916909217909155600b805491610b4a83612ea0565b91905055505b3360009081526008602052604081208054839290610b6f908490612eb9565b9250508190555034600a6000828254610b889190612eb9565b909155505033600090815260056020908152604082206002548154600181018355918452918320015560108054839290610bc3908490612eb9565b909155505060025433600081815260086020526040908190205490517f5dc4dcd1f92964d14e2e96d2da87291ad3eb7386b55ba0da1b3457e9ab3ed02791610c1f91869134919283526020830191909152604082015260600190565b60405180910390a3610c2f611fbf565b610c396001600055565b50565b610c44612063565b6000600c5460ff166002811115610c5d57610c5d61294d565b14610c9c5760405162461bcd60e51b815260206004820152600f60248201526e2930b3333632903737ba1037b832b760891b6044820152606401610931565b6002600b541015610ce95760405162461bcd60e51b81526020600482015260176024820152764e6f7420656e6f756768207061727469636970616e747360481b6044820152606401610931565b610cf1612090565b565b600080600c5460ff166002811115610d0d57610d0d61294d565b600b5460028054600090815260036020526040812060010154949093149450111591610d3c9061025890612eb9565b421015905060006201518060036000600254815260200190815260200160002060010154610d6a9190612eb9565b4210159050838015610d795750825b8015610d8957508180610d895750805b610dca5760405162461bcd60e51b815260206004820152601260248201527110dbdb991a5d1a5bdb9cc81b9bdd081b595d60721b6044820152606401610931565b6000610dd886880188612ecc565b600254600b5460008281526003602052604090206001015492935090917f1d7686638fe5920208ada0078291072b9970382a825d51b656eb304ab2ff91e29190610e229042612f66565b84604051610e3293929190612f79565b60405180910390a2610e42612090565b50505050505050565b610e53611f6a565b3360009081526006602052604090205480610ea75760405162461bcd60e51b81526020600482015260146024820152734e6f207072697a6520746f20776974686472617760601b6044820152606401610931565b3360009081526006602052604081208190555b60125481101561103957336001600160a01b031660128281548110610ee157610ee1612fa1565b60009182526020909120600160079092020101546001600160a01b0316148015610f32575060128181548110610f1957610f19612fa1565b600091825260209091206005600790920201015460ff16155b1561103157600160128281548110610f4c57610f4c612fa1565b906000526020600020906007020160050160006101000a81548160ff02191690831515021790555060016013600060128481548110610f8d57610f8d612fa1565b906000526020600020906007020160000154815260200190815260200160002060006101000a81548160ff021916908315150217905550336001600160a01b031660128281548110610fe157610fe1612fa1565b9060005260206000209060070201600001547ff3c1367748323bb3414df103a8bfff0ae19678e2dc80b4ef2b1a5016a992272a8460405161102491815260200190565b60405180910390a3611039565b600101610eba565b50604051600090339083908381818185875af1925050503d806000811461107c576040519150601f19603f3d011682016040523d82523d6000602084013e611081565b606091505b50509050806110d25760405162461bcd60e51b815260206004820152601760248201527f5072697a65207769746864726177616c206661696c65640000000000000000006044820152606401610931565b5050610cf16001600055565b600060608180600c5460ff1660028111156110fb576110fb61294d565b600b546002805460009081526003602052604081206001015494909314945011159161112a9061025890612eb9565b4210159050600062015180600360006002548152602001908152602001600020600101546111589190612eb9565b42101590508380156111675750825b8015611177575081806111775750805b955080156111cd576040516020016111b79060208082526014908201527313505617d1155490551253d397d4915050d2115160621b604082015260600190565b604051602081830303815290604052945061121b565b811561121b576040516020016112099060208082526012908201527113525397d0d3d39112551253d394d7d3515560721b604082015260600190565b60405160208183030381529060405294505b505050509250929050565b61122e612063565b610cf160006122ee565b6012818154811061124857600080fd5b600091825260209091206007909102018054600182015460028301546003840154600485015460058601546006870180549698506001600160a01b039095169693959294919360ff909116929091906112a090612fb7565b80601f01602080910402602001604051908101604052809291908181526020018280546112cc90612fb7565b80156113195780601f106112ee57610100808354040283529160200191611319565b820191906000526020600020905b8154815290600101906020018083116112fc57829003601f168201915b5050505050905087565b600254600081815260036020526040812060010154600b54600a54600c5492939192909160ff90911690806113588642612f66565b90506102588110156113775761137081610258612f66565b915061137c565b600091505b50909192939495565b61138d612063565b610cf1612340565b600781815481106113a557600080fd5b6000918252602090912001546001600160a01b0316905081565b600560205281600052604060002081815481106113db57600080fd5b90600052602060002001600091509150505481565b6001600160a01b03811660009081526005602090815260409182902080548351818402810184019094528084526060939283018282801561145057602002820191906000526020600020905b81548152602001906001019080831161143c575b50505050509050919050565b60075460609060009067ffffffffffffffff81111561147d5761147d6129d1565b6040519080825280602002602001820160405280156114db57816020015b6114c8604051806060016040528060006001600160a01b0316815260200160008152602001600081525090565b81526020019060019003908161149b5790505b50905060005b6007548110156115825760006007828154811061150057611500612fa1565b6000918252602080832090910154604080516060810182526001600160a01b0390921680835280855260088085528286205484860181905295829052909352919350919082019061155990662386f26fc1000090612e89565b81525083838151811061156e5761156e612fa1565b6020908102919091010152506001016114e1565b50919050565b611590612063565b476000805b60125481101561160857601281815481106115b2576115b2612fa1565b600091825260209091206005600790920201015460ff1661160057601281815481106115e0576115e0612fa1565b906000526020600020906007020160020154826115fd9190612eb9565b91505b600101611595565b50600a546116169082612eb9565b90508082116116675760405162461bcd60e51b815260206004820152601a60248201527f4e6f20706c6174666f726d206665657320617661696c61626c650000000000006044820152606401610931565b60006116738284612f66565b905060006116896001546001600160a01b031690565b6001600160a01b03168260405160006040518083038185875af1925050503d80600081146116d3576040519150601f19603f3d011682016040523d82523d6000602084013e6116d8565b606091505b50509050806117295760405162461bcd60e51b815260206004820152601e60248201527f506c6174666f726d20666565207769746864726177616c206661696c656400006044820152606401610931565b50505050565b60125460609060008184116117445783611746565b815b905060008167ffffffffffffffff811115611763576117636129d1565b6040519080825280602002602001820160405280156117df57816020015b6117cc6040518060e001604052806000815260200160006001600160a01b03168152602001600081526020016000815260200160008152602001600015158152602001606081525090565b8152602001906001900390816117815790505b50905060005b82811015611936576012816117fb600187612f66565b6118059190612f66565b8154811061181557611815612fa1565b60009182526020918290206040805160e08101825260079093029091018054835260018101546001600160a01b0316938301939093526002830154908201526003820154606082015260048201546080820152600582015460ff16151560a082015260068201805491929160c08401919061188f90612fb7565b80601f01602080910402602001604051908101604052809291908181526020018280546118bb90612fb7565b80156119085780601f106118dd57610100808354040283529160200191611908565b820191906000526020600020905b8154815290600101906020018083116118eb57829003601f168201915b50505050508152505082828151811061192357611923612fa1565b60209081029190910101526001016117e5565b50949350505050565b611947612063565b610cf1612395565b60008080606081805b601254811015611acf57866012828154811061197657611976612fa1565b90600052602060002090600702016000015403611ac7576000601282815481106119a2576119a2612fa1565b60009182526020918290206040805160e08101825260079093029091018054835260018101546001600160a01b0316938301939093526002830154908201526003820154606082015260048201546080820152600582015460ff16151560a082015260068201805491929160c084019190611a1c90612fb7565b80601f0160208091040260200160405190810160405280929190818152602001828054611a4890612fb7565b8015611a955780601f10611a6a57610100808354040283529160200191611a95565b820191906000526020600020905b815481529060010190602001808311611a7857829003601f168201915b50505050508152505090508060200151816040015182608001518360c001516001965096509650965096505050611aed565b600101611958565b50506040805160208101909152600080825294508493508392509050815b91939590929450565b611afe612063565b6001600160a01b038116611b2857604051631e4fbdf760e01b815260006004820152602401610931565b610c39816122ee565b60008281526004602052604081205490819003611b855760405162461bcd60e51b8152602060048201526012602482015271125b9d985b1a59081c995c5d595cdd08125160721b6044820152606401610931565b6001600c5460ff166002811115611b9e57611b9e61294d565b14611be45760405162461bcd60e51b81526020600482015260166024820152752737ba1031b0b631bab630ba34b733903bb4b73732b960511b6044820152606401610931565b600082600081518110611bf957611bf9612fa1565b602002602001015190506000611c0e826123d8565b600a5490915060006064611c23605a84612e89565b611c2d9190613001565b90506000611c3b8284612f66565b6002805460009081526003602052604080822060050180546001600160a01b0319166001600160a01b038a161790558254825280822060060186905582548252808220600901899055825482528082204290840155825482529020600a018054929350909161ff0019166101008302179055506001600160a01b03841660009081526006602052604081208054849290611cd6908490612eb9565b9091555060009050611cea878688876124f6565b6040805160e0810182528981526001600160a01b03888116602083019081529282018781524260608401908152608084018c8152600060a0860181815260c0870189815260128054600181018255935287517fbb8a6a4669ba250d26cd7a459eca9d215f8307e33aebe50379bc5a3617ec3444600790940293840190815598517fbb8a6a4669ba250d26cd7a459eca9d215f8307e33aebe50379bc5a3617ec3445840180546001600160a01b031916919098161790965593517fbb8a6a4669ba250d26cd7a459eca9d215f8307e33aebe50379bc5a3617ec344682015591517fbb8a6a4669ba250d26cd7a459eca9d215f8307e33aebe50379bc5a3617ec3447830155517fbb8a6a4669ba250d26cd7a459eca9d215f8307e33aebe50379bc5a3617ec344882015590517fbb8a6a4669ba250d26cd7a459eca9d215f8307e33aebe50379bc5a3617ec34498201805460ff1916911515919091179055905193945090927fbb8a6a4669ba250d26cd7a459eca9d215f8307e33aebe50379bc5a3617ec344a90910190611e7c9082613063565b5050600e805491506000611e8f83612ea0565b919050555082600f6000828254611ea69190612eb9565b925050819055508160116000828254611ebf9190612eb9565b9091555050600c805460ff19166002908117909155805460405190917f30d620e139a09aa5966cb24772df5a5612220e1e5aa3b9b6230293551fae6fb691611f079190612985565b60405180910390a2846001600160a01b03166002547fd9142af1071b716bcea2e8fdb1179e9b5db2595f03c1dbef9b00314d1a1f27cb858985604051611f4f93929190612f79565b60405180910390a3611f5f61256a565b505050505050505050565b600260005403611f8d57604051633ee5aeb560e01b815260040160405180910390fd5b6002600055565b600154600160a01b900460ff1615610cf15760405163d93c066560e01b815260040160405180910390fd5b6000600c5460ff166002811115611fd857611fd861294d565b14611fdf57565b600b54600280546000908152600360205260408120600101549190921015919061200c9061025890612eb9565b42101590506000620151806003600060025481526020019081526020016000206001015461203a9190612eb9565b42101590508280156120495750815b806120515750805b1561205e5761205e612090565b505050565b6001546001600160a01b03163314610cf15760405163118cdaa760e01b8152336004820152602401610931565b6000600c5460ff1660028111156120a9576120a961294d565b146120e85760405162461bcd60e51b815260206004820152600f60248201526e2930b3333632903737ba1037b832b760891b6044820152606401610931565b6002600b5410156121355760405162461bcd60e51b81526020600482015260176024820152764e6f7420656e6f756768207061727469636970616e747360481b6044820152606401610931565b600c805460ff1916600190811790915560025460405190917f30d620e139a09aa5966cb24772df5a5612220e1e5aa3b9b6230293551fae6fb6916121799190612985565b60405180910390a26040516305d3b1d360e41b81527f0000000000000000000000000000000000000000000000000000000000000000600482015267ffffffffffffffff7f000000000000000000000000000000000000000000000000000000000000000016602482015260036044820152620493e06064820152600160848201526000907f00000000000000000000000000000000000000000000000000000000000000006001600160a01b031690635d3b1d309060a4016020604051808303816000875af1158015612251573d6000803e3d6000fd5b505050506040513d601f19601f820116820180604052508101906122759190613122565b600280546000838152600460209081526040808320849055600d86905592825260038152908290206008018490559154600b54600a54835186815294850191909152838301529051929350917fe3dc28d9727cfe6e62cde577539006284c6c06824a3fbf00b5e7c0ce42cac68b9181900360600190a250565b600180546001600160a01b038381166001600160a01b0319831681179093556040519116919082907f8be0079c531659141344cd1fd0a4f28419497f9722a3daafe3b4186f6b6457e090600090a35050565b6123486126e3565b6001805460ff60a01b191690557f5db9ee0a495bf2e6ff9c91a7834c1ba4fdd244a5e8aa4e537bd38aeae4b073aa335b6040516001600160a01b03909116815260200160405180910390a1565b61239d611f94565b6001805460ff60a01b1916600160a01b1790557f62e78cea01bee320cd4e420270b5ea74000d11b0c9f74754ebdbfc544b05a2586123783390565b600080805b6007548110156124375760086000600783815481106123fe576123fe612fa1565b60009182526020808320909101546001600160a01b0316835282019290925260400190205461242d9083612eb9565b91506001016123dd565b506000612444828561313b565b90506000805b6007548110156124c35760006007828154811061246957612469612fa1565b60009182526020808320909101546001600160a01b0316808352600890915260409091205490915061249b8185612eb9565b8510156124ad57509695505050505050565b6124b78185612eb9565b9350505060010161244a565b5060076000815481106124d8576124d8612fa1565b6000918252602090912001546001600160a01b031695945050505050565b6040805160208101869052606085811b6bffffffffffffffffffffffff19169282019290925260548101849052607481018390524260948201524460b482015260009060d4016040516020818303038152906040528051906020012090506125608160001c61270d565b9695505050505050565b6002805490600061257a83612ea0565b9091555061258c90506007600061291b565b6000600b819055600a819055600c805460ff19169055600d8190555b60075481101561263d5760086000600783815481106125c9576125c9612fa1565b60009182526020808320909101546001600160a01b0316835282019290925260400181208190556007805460099291908490811061260957612609612fa1565b60009182526020808320909101546001600160a01b031683528201929092526040019020805460ff191690556001016125a8565b506002805460008181526003602090815260408083209384554260019094018490558454835291829020600a01805461ff001916905592549051918252917fe1078fbf8122252d4552c2b9c945a0794c0dcfd34277a548cabe558ebb8fb660910160405180910390a26002547f30d620e139a09aa5966cb24772df5a5612220e1e5aa3b9b6230293551fae6fb660006040516126d99190612985565b60405180910390a2565b600154600160a01b900460ff16610cf157604051638dfc202b60e01b815260040160405180910390fd5b6060816000036127375750506040805180820190915260048152630307830360e41b602082015290565b8160005b811561275a578061274b81612ea0565b915050600882901c915061273b565b612764848261276c565b949350505050565b6060600061277b836002612e89565b612786906002612eb9565b67ffffffffffffffff81111561279e5761279e6129d1565b6040519080825280601f01601f1916602001820160405280156127c8576020820181803683370190505b509050600360fc1b816000815181106127e3576127e3612fa1565b60200101906001600160f81b031916908160001a905350600f60fb1b8160018151811061281257612812612fa1565b60200101906001600160f81b031916908160001a9053506000612836846002612e89565b612841906002612eb9565b90505b60028111156128c3576f181899199a1a9b1b9c1cb0b131b232b360811b85600f166010811061287557612875612fa1565b1a60f81b82612885600184612f66565b8151811061289557612895612fa1565b60200101906001600160f81b031916908160001a90535060049490941c936128bc8161314f565b9050612844565b5083156129125760405162461bcd60e51b815260206004820181905260248201527f537472696e67733a20686578206c656e67746820696e73756666696369656e746044820152606401610931565b90505b92915050565b5080546000825590600052602060002090810190610c3991905b808211156129495760008155600101612935565b5090565b634e487b7160e01b600052602160045260246000fd5b6003811061298157634e487b7160e01b600052602160045260246000fd5b9052565b602081016129158284612963565b80356001600160a01b03811681146129aa57600080fd5b919050565b6000602082840312156129c157600080fd5b6129ca82612993565b9392505050565b634e487b7160e01b600052604160045260246000fd5b604051601f8201601f1916810167ffffffffffffffff81118282101715612a1057612a106129d1565b604052919050565b60008060408385031215612a2b57600080fd5b82359150602083013567ffffffffffffffff811115612a4957600080fd5b8301601f81018513612a5a57600080fd5b803567ffffffffffffffff811115612a7457612a746129d1565b8060051b612a84602082016129e7565b91825260208184018101929081019088841115612aa057600080fd5b6020850194505b83851015612ac657843580835260209586019590935090910190612aa7565b80955050505050509250929050565b600060208284031215612ae757600080fd5b5035919050565b8a8152602081018a9052604081018990526001600160a01b03881660608201526080810187905260a0810186905260c0810185905260e081018490528215156101008201526101408101612b46610120830184612963565b9b9a5050505050505050505050565b60008060208385031215612b6857600080fd5b823567ffffffffffffffff811115612b7f57600080fd5b8301601f81018513612b9057600080fd5b803567ffffffffffffffff811115612ba757600080fd5b856020828401011115612bb957600080fd5b6020919091019590945092505050565b6000815180845260005b81811015612bef57602081850181015186830182015201612bd3565b506000602082860101526020601f19601f83011685010191505092915050565b82151581526040602082015260006127646040830184612bc9565b87815260018060a01b038716602082015285604082015284606082015283608082015282151560a082015260e060c08201526000612c6b60e0830184612bc9565b9998505050505050505050565b600060c082019050878252866020830152856040830152846060830152612ca26080830185612963565b8260a0830152979650505050505050565b60008060408385031215612cc657600080fd5b612ccf83612993565b946020939093013593505050565b602080825282518282018190526000918401906040840190835b81811015612d15578351835260209384019390920191600101612cf7565b509095945050505050565b602080825282518282018190526000918401906040840190835b81811015612d1557835180516001600160a01b03168452602080820151818601526040918201519185019190915290930192606090920191600101612d3a565b6000602082016020835280845180835260408501915060408160051b86010192506020860160005b82811015612e2657603f1987860301845281518051865260018060a01b03602082015116602087015260408101516040870152606081015160608701526080810151608087015260a0810151151560a087015260c0810151905060e060c0870152612e1060e0870182612bc9565b9550506020938401939190910190600101612da2565b50929695505050505050565b60018060a01b038616815284602082015283604082015260a060608201526000612e5f60a0830185612bc9565b905082151560808301529695505050505050565b634e487b7160e01b600052601160045260246000fd5b808202811582820484141761291557612915612e73565b600060018201612eb257612eb2612e73565b5060010190565b8082018082111561291557612915612e73565b600060208284031215612ede57600080fd5b813567ffffffffffffffff811115612ef557600080fd5b8201601f81018413612f0657600080fd5b803567ffffffffffffffff811115612f2057612f206129d1565b612f33601f8201601f19166020016129e7565b818152856020838501011115612f4857600080fd5b81602084016020830137600091810160200191909152949350505050565b8181038181111561291557612915612e73565b838152826020820152606060408201526000612f986060830184612bc9565b95945050505050565b634e487b7160e01b600052603260045260246000fd5b600181811c90821680612fcb57607f821691505b60208210810361158257634e487b7160e01b600052602260045260246000fd5b634e487b7160e01b600052601260045260246000fd5b60008261301057613010612feb565b500490565b601f82111561205e57806000526020600020601f840160051c8101602085101561303c5750805b601f840160051c820191505b8181101561305c5760008155600101613048565b5050505050565b815167ffffffffffffffff81111561307d5761307d6129d1565b6130918161308b8454612fb7565b84613015565b6020601f8211600181146130c557600083156130ad5750848201515b600019600385901b1c1916600184901b17845561305c565b600084815260208120601f198516915b828110156130f557878501518255602094850194600190920191016130d5565b50848210156131135786840151600019600387901b60f8161c191681555b50505050600190811b01905550565b60006020828403121561313457600080fd5b5051919050565b60008261314a5761314a612feb565b500690565b60008161315e5761315e612e73565b50600019019056fea264697066735822122080cb15b28532362707715477d4fe465bc1eadde06abff7bbbceab85a0536845964736f6c634300081c0033",
  "linkReferences": {},
  "deployedLinkReferences": {}
}