{
  "_format": "hh-sol-artifact-1",
  "contractName": "EnhancedChainlinkRaffle",
  "sourceName": "contracts/EnhancedChainlinkRaffle.sol",
  "abi": [
    {
      "inputs": [
        {
          "internalType": "address",
          "name": "_vrfCoordinator",
          "type": "address"
        },
        {
          "internalType": "address",
          "name": "_linkToken",
          "type": "address"
        },
        {
          "internalType": "bytes32",
          "name": "_keyHash",
          "type": "bytes32"
        },
        {
          "internalType": "uint256",
          "name": "_vrfFee",
          "type": "uint256"
        },
        {
          "internalType": "address",
          "name": "_feeRecipient",
          "type": "address"
        }
      ],
      "stateMutability": "nonpayable",
      "type": "constructor"
    },
    {
      "inputs": [],
      "name": "OnlySimulatedBackend",
      "type": "error"
    },
    {
      "inputs": [
        {
          "internalType": "address",
          "name": "owner",
          "type": "address"
        }
      ],
      "name": "OwnableInvalidOwner",
      "type": "error"
    },
    {
      "inputs": [
        {
          "internalType": "address",
          "name": "account",
          "type": "address"
        }
      ],
      "name": "OwnableUnauthorizedAccount",
      "type": "error"
    },
    {
      "inputs": [],
      "name": "ReentrancyGuardReentrantCall",
      "type": "error"
    },
    {
      "anonymous": false,
      "inputs": [
        {
          "indexed": true,
          "internalType": "uint256",
          "name": "newRaffleId",
          "type": "uint256"
        },
        {
          "indexed": false,
          "internalType": "uint256",
          "name": "previousRaffleId",
          "type": "uint256"
        }
      ],
      "name": "NextRaffleAutoStarted",
      "type": "event"
    },
    {
      "anonymous": false,
      "inputs": [
        {
          "indexed": true,
          "internalType": "address",
          "name": "previousOwner",
          "type": "address"
        },
        {
          "indexed": true,
          "internalType": "address",
          "name": "newOwner",
          "type": "address"
        }
      ],
      "name": "OwnershipTransferred",
      "type": "event"
    },
    {
      "anonymous": false,
      "inputs": [
        {
          "indexed": true,
          "internalType": "uint256",
          "name": "raffleId",
          "type": "uint256"
        },
        {
          "indexed": true,
          "internalType": "address",
          "name": "winner",
          "type": "address"
        },
        {
          "indexed": false,
          "internalType": "uint256",
          "name": "amount",
          "type": "uint256"
        }
      ],
      "name": "PrizeWithdrawn",
      "type": "event"
    },
    {
      "anonymous": false,
      "inputs": [
        {
          "indexed": true,
          "internalType": "uint256",
          "name": "raffleId",
          "type": "uint256"
        },
        {
          "indexed": false,
          "internalType": "uint256",
          "name": "ticketPrice",
          "type": "uint256"
        },
        {
          "indexed": false,
          "internalType": "uint256",
          "name": "maxTickets",
          "type": "uint256"
        },
        {
          "indexed": false,
          "internalType": "uint256",
          "name": "endTime",
          "type": "uint256"
        }
      ],
      "name": "RaffleStarted",
      "type": "event"
    },
    {
      "anonymous": false,
      "inputs": [
        {
          "indexed": true,
          "internalType": "uint256",
          "name": "raffleId",
          "type": "uint256"
        },
        {
          "indexed": true,
          "internalType": "bytes32",
          "name": "requestId",
          "type": "bytes32"
        }
      ],
      "name": "RandomnessRequested",
      "type": "event"
    },
    {
      "anonymous": false,
      "inputs": [
        {
          "indexed": true,
          "internalType": "uint256",
          "name": "raffleId",
          "type": "uint256"
        },
        {
          "indexed": true,
          "internalType": "address",
          "name": "buyer",
          "type": "address"
        },
        {
          "indexed": false,
          "internalType": "uint256",
          "name": "ticketCount",
          "type": "uint256"
        },
        {
          "indexed": false,
          "internalType": "uint256[]",
          "name": "ticketNumbers",
          "type": "uint256[]"
        }
      ],
      "name": "TicketPurchased",
      "type": "event"
    },
    {
      "anonymous": false,
      "inputs": [
        {
          "indexed": true,
          "internalType": "uint256",
          "name": "raffleId",
          "type": "uint256"
        },
        {
          "indexed": true,
          "internalType": "address",
          "name": "winner",
          "type": "address"
        },
        {
          "indexed": false,
          "internalType": "uint256",
          "name": "prizeAmount",
          "type": "uint256"
        },
        {
          "indexed": false,
          "internalType": "uint256",
          "name": "winningTicket",
          "type": "uint256"
        }
      ],
      "name": "WinnerSelected",
      "type": "event"
    },
    {
      "inputs": [],
      "name": "DEFAULT_DURATION",
      "outputs": [
        {
          "internalType": "uint256",
          "name": "",
          "type": "uint256"
        }
      ],
      "stateMutability": "view",
      "type": "function"
    },
    {
      "inputs": [],
      "name": "DEFAULT_MAX_TICKETS",
      "outputs": [
        {
          "internalType": "uint256",
          "name": "",
          "type": "uint256"
        }
      ],
      "stateMutability": "view",
      "type": "function"
    },
    {
      "inputs": [],
      "name": "DEFAULT_TICKET_PRICE",
      "outputs": [
        {
          "internalType": "uint256",
          "name": "",
          "type": "uint256"
        }
      ],
      "stateMutability": "view",
      "type": "function"
    },
    {
      "inputs": [],
      "name": "MIN_PARTICIPANTS",
      "outputs": [
        {
          "internalType": "uint256",
          "name": "",
          "type": "uint256"
        }
      ],
      "stateMutability": "view",
      "type": "function"
    },
    {
      "inputs": [],
      "name": "MIN_RAFFLE_DURATION",
      "outputs": [
        {
          "internalType": "uint256",
          "name": "",
          "type": "uint256"
        }
      ],
      "stateMutability": "view",
      "type": "function"
    },
    {
      "inputs": [
        {
          "internalType": "uint256",
          "name": "_ticketCount",
          "type": "uint256"
        }
      ],
      "name": "buyTickets",
      "outputs": [],
      "stateMutability": "payable",
      "type": "function"
    },
    {
      "inputs": [
        {
          "internalType": "uint256",
          "name": "raffleId",
          "type": "uint256"
        },
        {
          "internalType": "address",
          "name": "user",
          "type": "address"
        }
      ],
      "name": "calculateUserOdds",
      "outputs": [
        {
          "internalType": "uint256",
          "name": "numerator",
          "type": "uint256"
        },
        {
          "internalType": "uint256",
          "name": "denominator",
          "type": "uint256"
        }
      ],
      "stateMutability": "view",
      "type": "function"
    },
    {
      "inputs": [
        {
          "internalType": "bytes",
          "name": "",
          "type": "bytes"
        }
      ],
      "name": "checkUpkeep",
      "outputs": [
        {
          "internalType": "bool",
          "name": "upkeepNeeded",
          "type": "bool"
        },
        {
          "internalType": "bytes",
          "name": "performData",
          "type": "bytes"
        }
      ],
      "stateMutability": "view",
      "type": "function"
    },
    {
      "inputs": [],
      "name": "currentRaffleId",
      "outputs": [
        {
          "internalType": "uint256",
          "name": "",
          "type": "uint256"
        }
      ],
      "stateMutability": "view",
      "type": "function"
    },
    {
      "inputs": [],
      "name": "emergencyWithdraw",
      "outputs": [],
      "stateMutability": "nonpayable",
      "type": "function"
    },
    {
      "inputs": [],
      "name": "feeRecipient",
      "outputs": [
        {
          "internalType": "address",
          "name": "",
          "type": "address"
        }
      ],
      "stateMutability": "view",
      "type": "function"
    },
    {
      "inputs": [
        {
          "internalType": "uint256",
          "name": "amount",
          "type": "uint256"
        }
      ],
      "name": "fundWithLINK",
      "outputs": [],
      "stateMutability": "nonpayable",
      "type": "function"
    },
    {
      "inputs": [],
      "name": "getCurrentRaffle",
      "outputs": [
        {
          "internalType": "uint256",
          "name": "id",
          "type": "uint256"
        },
        {
          "internalType": "uint256",
          "name": "ticketPrice",
          "type": "uint256"
        },
        {
          "internalType": "uint256",
          "name": "maxTickets",
          "type": "uint256"
        },
        {
          "internalType": "uint256",
          "name": "totalTicketsSold",
          "type": "uint256"
        },
        {
          "internalType": "uint256",
          "name": "prizePool",
          "type": "uint256"
        },
        {
          "internalType": "uint256",
          "name": "endTime",
          "type": "uint256"
        },
        {
          "internalType": "bool",
          "name": "isActive",
          "type": "bool"
        },
        {
          "internalType": "uint256",
          "name": "participantCount",
          "type": "uint256"
        }
      ],
      "stateMutability": "view",
      "type": "function"
    },
    {
      "inputs": [],
      "name": "getLINKBalance",
      "outputs": [
        {
          "internalType": "uint256",
          "name": "",
          "type": "uint256"
        }
      ],
      "stateMutability": "view",
      "type": "function"
    },
    {
      "inputs": [
        {
          "internalType": "address",
          "name": "user",
          "type": "address"
        }
      ],
      "name": "getPendingWithdrawal",
      "outputs": [
        {
          "internalType": "uint256",
          "name": "",
          "type": "uint256"
        }
      ],
      "stateMutability": "view",
      "type": "function"
    },
    {
      "inputs": [
        {
          "internalType": "uint256",
          "name": "raffleId",
          "type": "uint256"
        }
      ],
      "name": "getRaffleDetails",
      "outputs": [
        {
          "internalType": "uint256",
          "name": "id",
          "type": "uint256"
        },
        {
          "internalType": "uint256",
          "name": "ticketPrice",
          "type": "uint256"
        },
        {
          "internalType": "uint256",
          "name": "maxTickets",
          "type": "uint256"
        },
        {
          "internalType": "uint256",
          "name": "totalTicketsSold",
          "type": "uint256"
        },
        {
          "internalType": "uint256",
          "name": "prizePool",
          "type": "uint256"
        },
        {
          "internalType": "uint256",
          "name": "startTime",
          "type": "uint256"
        },
        {
          "internalType": "uint256",
          "name": "endTime",
          "type": "uint256"
        },
        {
          "internalType": "bool",
          "name": "isActive",
          "type": "bool"
        },
        {
          "internalType": "bool",
          "name": "isCompleted",
          "type": "bool"
        },
        {
          "internalType": "address",
          "name": "winner",
          "type": "address"
        },
        {
          "internalType": "uint256",
          "name": "winningTicket",
          "type": "uint256"
        },
        {
          "internalType": "uint256",
          "name": "participantCount",
          "type": "uint256"
        }
      ],
      "stateMutability": "view",
      "type": "function"
    },
    {
      "inputs": [
        {
          "internalType": "uint256",
          "name": "raffleId",
          "type": "uint256"
        },
        {
          "internalType": "address",
          "name": "user",
          "type": "address"
        }
      ],
      "name": "getUserTicketCount",
      "outputs": [
        {
          "internalType": "uint256",
          "name": "",
          "type": "uint256"
        }
      ],
      "stateMutability": "view",
      "type": "function"
    },
    {
      "inputs": [
        {
          "internalType": "uint256",
          "name": "raffleId",
          "type": "uint256"
        },
        {
          "internalType": "address",
          "name": "user",
          "type": "address"
        }
      ],
      "name": "getUserTickets",
      "outputs": [
        {
          "internalType": "uint256[]",
          "name": "",
          "type": "uint256[]"
        }
      ],
      "stateMutability": "view",
      "type": "function"
    },
    {
      "inputs": [
        {
          "internalType": "uint256",
          "name": "limit",
          "type": "uint256"
        }
      ],
      "name": "getWinningHistory",
      "outputs": [
        {
          "internalType": "uint256[]",
          "name": "raffleIds",
          "type": "uint256[]"
        },
        {
          "internalType": "address[]",
          "name": "winners",
          "type": "address[]"
        },
        {
          "internalType": "uint256[]",
          "name": "prizes",
          "type": "uint256[]"
        },
        {
          "internalType": "uint256[]",
          "name": "winningTickets",
          "type": "uint256[]"
        }
      ],
      "stateMutability": "view",
      "type": "function"
    },
    {
      "inputs": [],
      "name": "manualTriggerWinner",
      "outputs": [],
      "stateMutability": "nonpayable",
      "type": "function"
    },
    {
      "inputs": [],
      "name": "owner",
      "outputs": [
        {
          "internalType": "address",
          "name": "",
          "type": "address"
        }
      ],
      "stateMutability": "view",
      "type": "function"
    },
    {
      "inputs": [
        {
          "internalType": "address",
          "name": "",
          "type": "address"
        }
      ],
      "name": "pendingWithdrawals",
      "outputs": [
        {
          "internalType": "uint256",
          "name": "",
          "type": "uint256"
        }
      ],
      "stateMutability": "view",
      "type": "function"
    },
    {
      "inputs": [
        {
          "internalType": "bytes",
          "name": "performData",
          "type": "bytes"
        }
      ],
      "name": "performUpkeep",
      "outputs": [],
      "stateMutability": "nonpayable",
      "type": "function"
    },
    {
      "inputs": [],
      "name": "platformFeePercent",
      "outputs": [
        {
          "internalType": "uint256",
          "name": "",
          "type": "uint256"
        }
      ],
      "stateMutability": "view",
      "type": "function"
    },
    {
      "inputs": [
        {
          "internalType": "uint256",
          "name": "",
          "type": "uint256"
        }
      ],
      "name": "raffles",
      "outputs": [
        {
          "internalType": "uint256",
          "name": "id",
          "type": "uint256"
        },
        {
          "internalType": "uint256",
          "name": "ticketPrice",
          "type": "uint256"
        },
        {
          "internalType": "uint256",
          "name": "maxTickets",
          "type": "uint256"
        },
        {
          "internalType": "uint256",
          "name": "totalTicketsSold",
          "type": "uint256"
        },
        {
          "internalType": "uint256",
          "name": "prizePool",
          "type": "uint256"
        },
        {
          "internalType": "uint256",
          "name": "startTime",
          "type": "uint256"
        },
        {
          "internalType": "uint256",
          "name": "endTime",
          "type": "uint256"
        },
        {
          "internalType": "bool",
          "name": "isActive",
          "type": "bool"
        },
        {
          "internalType": "bool",
          "name": "isCompleted",
          "type": "bool"
        },
        {
          "internalType": "bool",
          "name": "prizeWithdrawn",
          "type": "bool"
        },
        {
          "internalType": "address",
          "name": "winner",
          "type": "address"
        },
        {
          "internalType": "uint256",
          "name": "winningTicket",
          "type": "uint256"
        },
        {
          "internalType": "bytes32",
          "name": "vrfRequestId",
          "type": "bytes32"
        }
      ],
      "stateMutability": "view",
      "type": "function"
    },
    {
      "inputs": [
        {
          "internalType": "bytes32",
          "name": "requestId",
          "type": "bytes32"
        },
        {
          "internalType": "uint256",
          "name": "randomness",
          "type": "uint256"
        }
      ],
      "name": "rawFulfillRandomness",
      "outputs": [],
      "stateMutability": "nonpayable",
      "type": "function"
    },
    {
      "inputs": [],
      "name": "renounceOwnership",
      "outputs": [],
      "stateMutability": "nonpayable",
      "type": "function"
    },
    {
      "inputs": [],
      "name": "totalRafflesCompleted",
      "outputs": [
        {
          "internalType": "uint256",
          "name": "",
          "type": "uint256"
        }
      ],
      "stateMutability": "view",
      "type": "function"
    },
    {
      "inputs": [
        {
          "internalType": "address",
          "name": "newOwner",
          "type": "address"
        }
      ],
      "name": "transferOwnership",
      "outputs": [],
      "stateMutability": "nonpayable",
      "type": "function"
    },
    {
      "inputs": [
        {
          "internalType": "uint256",
          "name": "_platformFeePercent",
          "type": "uint256"
        },
        {
          "internalType": "address",
          "name": "_feeRecipient",
          "type": "address"
        }
      ],
      "name": "updateSettings",
      "outputs": [],
      "stateMutability": "nonpayable",
      "type": "function"
    },
    {
      "inputs": [
        {
          "internalType": "bytes32",
          "name": "",
          "type": "bytes32"
        }
      ],
      "name": "vrfRequestToRaffle",
      "outputs": [
        {
          "internalType": "uint256",
          "name": "",
          "type": "uint256"
        }
      ],
      "stateMutability": "view",
      "type": "function"
    },
    {
      "inputs": [],
      "name": "withdrawPrize",
      "outputs": [],
      "stateMutability": "nonpayable",
      "type": "function"
    },
    {
      "stateMutability": "payable",
      "type": "receive"
    }
  ],
  "bytecode": "0x60c0604052600160065560006007556005600a5534801561001f57600080fd5b5060405161234938038061234983398101604081905261003e916101f3565b6001600160a01b0380861660a0528416608052338061007757604051631e4fbdf760e01b81526000600482015260240160405180910390fd5b610080816100ca565b50600160025560088390556009829055600b80546001600160a01b0319166001600160a01b0383161790556100c0662386f26fc100006064610e1061011c565b50505050506102a9565b600180546001600160a01b038381166001600160a01b0319831681179093556040519116919082907f8be0079c531659141344cd1fd0a4f28419497f9722a3daafe3b4186f6b6457e090600090a35050565b6006546000818152600360205260409020818155600181018590556002810184905542600582015561015083610e10610260565b61015a904261027d565b60068083019190915560078201805462ffffff19166001179055805490600061018283610290565b9091555050600681015460408051878152602081018790529081019190915282907faa34d14e4397df627425f65aa35b44e244791b1e87c4cc5ecb279f9e46a82f6f9060600160405180910390a25050505050565b80516001600160a01b03811681146101ee57600080fd5b919050565b600080600080600060a0868803121561020b57600080fd5b610214866101d7565b9450610222602087016101d7565b9350604086015192506060860151915061023e608087016101d7565b90509295509295909350565b634e487b7160e01b600052601160045260246000fd5b80820281158282048414176102775761027761024a565b92915050565b808201808211156102775761027761024a565b6000600182016102a2576102a261024a565b5060010190565b60805160a05161205f6102ea60003960008181610fc00152611a68015260008181610de80152818161134d015281816116690152611a39015261205f6000f3fe6080604052600436106101e75760003560e01c80638c639a8511610102578063ba5d2ce811610095578063e7a7f65c11610064578063e7a7f65c14610786578063f2fde38b146107b3578063f3f43703146107d3578063fdf809fe1461080057600080fd5b8063ba5d2ce8146106df578063c297fa0f14610740578063d7f02a7114610756578063db2e21bc1461077157600080fd5b806396eb4f32116100d157806396eb4f3214610587578063a080dffe146105b7578063aad96e8c146106aa578063ac428e7a146106ca57600080fd5b80638c639a85146105065780638cf855181461051c5780638da5cb5b1461054957806394985ddd1461056757600080fd5b80635d4bc0ce1161017a5780637e50e44b116101495780637e50e44b146104485780637ee8b2f81461049a57806381eff790146104d057806383ab96f0146104e657600080fd5b80635d4bc0ce146102e857806365df169e146103ef5780636e04ff0d14610405578063715018a61461043357600080fd5b80634585e33b116101b65780634585e33b1461025b578063469048401461027b57806348d37a58146102b35780634b44689c146102c857600080fd5b80632f366637146101f35780633038c646146102085780633a984bc5146102315780633c7cf6411461024657600080fd5b366101ee57005b600080fd5b610206610201366004611c6b565b610815565b005b34801561021457600080fd5b5061021e60075481565b6040519081526020015b60405180910390f35b34801561023d57600080fd5b5061021e600281565b34801561025257600080fd5b5061021e606481565b34801561026757600080fd5b50610206610276366004611c84565b610c0a565b34801561028757600080fd5b50600b5461029b906001600160a01b031681565b6040516001600160a01b039091168152602001610228565b3480156102bf57600080fd5b50610206610c53565b3480156102d457600080fd5b506102066102e3366004611c6b565b610dbe565b3480156102f457600080fd5b5061037e610303366004611c6b565b60036020819052600091825260409091208054600182015460028301549383015460048401546005850154600686015460078701546008880154600990980154969895979596949593949293919260ff8083169361010084048216936201000081049092169263010000009092046001600160a01b0316918d565b604080519d8e5260208e019c909c529a8c019990995260608b019790975260808a019590955260a089019390935260c0880191909152151560e0870152151561010086015215156101208501526001600160a01b03166101408401526101608301526101808201526101a001610228565b3480156103fb57600080fd5b5061021e60065481565b34801561041157600080fd5b50610425610420366004611c84565b610e61565b604051610228929190611d3e565b34801561043f57600080fd5b50610206610ed6565b34801561045457600080fd5b5061045d610ee8565b604080519889526020890197909752958701949094526060860192909252608085015260a0840152151560c083015260e082015261010001610228565b3480156104a657600080fd5b5061021e6104b5366004611d75565b6001600160a01b031660009081526005602052604090205490565b3480156104dc57600080fd5b5061021e61025881565b3480156104f257600080fd5b5061021e610501366004611d90565b610f88565b34801561051257600080fd5b5061021e600a5481565b34801561052857600080fd5b5061021e610537366004611c6b565b60046020526000908152604090205481565b34801561055557600080fd5b506001546001600160a01b031661029b565b34801561057357600080fd5b50610206610582366004611dbc565b610fb5565b34801561059357600080fd5b506105a76105a2366004611c6b565b611037565b6040516102289493929190611e1a565b3480156105c357600080fd5b506106446105d2366004611c6b565b60009081526003602081905260409091208054600182015460028301549383015460048401546005850154600686015460078701546008880154600d909801549699959897949693959294919360ff8083169461010084049091169363010000009093046001600160a01b0316929190565b604080519c8d5260208d019b909b52998b019890985260608a0196909652608089019490945260a088019290925260c0870152151560e086015215156101008501526001600160a01b031661012084015261014083015261016082015261018001610228565b3480156106b657600080fd5b506102066106c5366004611d90565b6112c6565b3480156106d657600080fd5b5061021e611335565b3480156106eb57600080fd5b5061072b6106fa366004611d90565b60009182526003602081815260408085206001600160a01b03949094168552600b8401909152909220549101549091565b60408051928352602083019190915201610228565b34801561074c57600080fd5b5061021e610e1081565b34801561076257600080fd5b5061021e662386f26fc1000081565b34801561077d57600080fd5b506102066113c5565b34801561079257600080fd5b506107a66107a1366004611d90565b611406565b6040516102289190611ea5565b3480156107bf57600080fd5b506102066107ce366004611d75565b61147d565b3480156107df57600080fd5b5061021e6107ee366004611d75565b60056020526000908152604090205481565b34801561080c57600080fd5b506102066114b8565b61081d611531565b60008111801561082e5750600a8111155b61087f5760405162461bcd60e51b815260206004820152601b60248201527f496e76616c6964207469636b657420636f756e742028312d313029000000000060448201526064015b60405180910390fd5b60006003600060016006546108949190611ece565b81526020810191909152604001600020600781015490915060ff166108ee5760405162461bcd60e51b815260206004820152601060248201526f4e6f2061637469766520726166666c6560801b6044820152606401610876565b806006015442106109305760405162461bcd60e51b815260206004820152600c60248201526b149859999b1948195b99195960a21b6044820152606401610876565b80600201548282600301546109459190611ee1565b11156109935760405162461bcd60e51b815260206004820152601c60248201527f4e6f7420656e6f756768207469636b65747320617661696c61626c65000000006044820152606401610876565b60008282600101546109a59190611ef4565b9050803410156109ee5760405162461bcd60e51b8152602060048201526014602482015273125b9cdd59999a58da595b9d081c185e5b595b9d60621b6044820152606401610876565b80341115610a2e57336108fc610a048334611ece565b6040518115909202916000818181858888f19350505050158015610a2c573d6000803e3d6000fd5b505b60008367ffffffffffffffff811115610a4957610a49611f0b565b604051908082528060200260200182016040528015610a72578160200160208202803683370190505b50905060005b84811015610b0b576000818560030154610a929190611ee1565b610a9d906001611ee1565b6000818152600a87016020908152604080832080546001600160a01b031916339081179091558352600b890182528220805460018101825590835291200181905583519091508190849084908110610af757610af7611f21565b602090810291909101015250600101610a78565b50336000908152600c8401602052604090205460ff16610b6c57600d83018054600181810183556000928352602080842090920180546001600160a01b031916339081179091558352600c86019091526040909120805460ff191690911790555b83836003016000828254610b809190611ee1565b9250508190555081836004016000828254610b9b9190611ee1565b909155505082546040513391907fdd1335d8700f40d827a1ef5cd3c318f03e9b5ad405f80611223021a60056f4d190610bd79088908690611f37565b60405180910390a38254610bea90611559565b15610bfa578254610bfa906115b5565b505050610c076001600255565b50565b6000610c1882840184611c6b565b60008181526003602052604090206007015490915060ff168015610c405750610c4081611559565b15610c4e57610c4e816115b5565b505050565b610c5b611531565b3360009081526005602052604090205480610caf5760405162461bcd60e51b81526020600482015260146024820152734e6f207072697a6520746f20776974686472617760601b6044820152606401610876565b336000818152600560205260408082208290555183156108fc0291849190818181858888f19350505050158015610cea573d6000803e3d6000fd5b5060015b600654811015610db057600081815260036020526040902060070154630100000090046001600160a01b031633148015610d40575060008181526003602052604090206007015462010000900460ff16155b15610da85760008181526003602052604090819020600701805462ff000019166201000017905551339082907ff3c1367748323bb3414df103a8bfff0ae19678e2dc80b4ef2b1a5016a992272a90610d9b9086815260200190565b60405180910390a3610db0565b600101610cee565b5050610dbc6001600255565b565b610dc6611783565b6040516323b872dd60e01b8152336004820152306024820152604481018290527f00000000000000000000000000000000000000000000000000000000000000006001600160a01b0316906323b872dd906064016020604051808303816000875af1158015610e39573d6000803e3d6000fd5b505050506040513d601f19601f82011682018060405250810190610e5d9190611f50565b5050565b6000606060006001600654610e769190611ece565b9050600081118015610e99575060008181526003602052604090206007015460ff165b15610ece57610ea781611559565b925080604051602001610ebc91815260200190565b60405160208183030381529060405291505b509250929050565b610ede611783565b610dbc60006117b0565b60008060008060008060008060006001600654610f059190611ece565b90508015610f6057600090815260036020819052604090912080546001820154600283015493830154600484015460068501546007860154600d90960154949e50929c50949a50985092965091945060ff1692509050610f7e565b60008060008060008060008098509850985098509850985098509850505b9091929394959697565b60008281526003602090815260408083206001600160a01b0385168452600b019091529020545b92915050565b336001600160a01b037f0000000000000000000000000000000000000000000000000000000000000000161461102d5760405162461bcd60e51b815260206004820152601f60248201527f4f6e6c7920565246436f6f7264696e61746f722063616e2066756c66696c6c006044820152606401610876565b610e5d8282611802565b6060806060806000600754905060008187116110535786611055565b815b90508067ffffffffffffffff81111561107057611070611f0b565b604051908082528060200260200182016040528015611099578160200160208202803683370190505b5095508067ffffffffffffffff8111156110b5576110b5611f0b565b6040519080825280602002602001820160405280156110de578160200160208202803683370190505b5094508067ffffffffffffffff8111156110fa576110fa611f0b565b604051908082528060200260200182016040528015611123578160200160208202803683370190505b5093508067ffffffffffffffff81111561113f5761113f611f0b565b604051908082528060200260200182016040528015611168578160200160208202803683370190505b509250600080600160065461117d9190611ece565b90505b60008111801561118f57508282105b156112bb57600081815260036020526040902060070154610100900460ff16156112a95760008181526003602052604090205488518990849081106111d6576111d6611f21565b6020026020010181815250506003600082815260200190815260200160002060070160039054906101000a90046001600160a01b031687838151811061121e5761121e611f21565b6001600160a01b03909216602092830291909101820152600082815260039091526040902060040154865187908490811061125b5761125b611f21565b602002602001018181525050600360008281526020019081526020016000206008015485838151811061129057611290611f21565b6020908102919091010152816112a581611f72565b9250505b806112b381611f8b565b915050611180565b505050509193509193565b6112ce611783565b600a82111561130e5760405162461bcd60e51b815260206004820152600c60248201526b08ccaca40e8dede40d0d2ced60a31b6044820152606401610876565b600a91909155600b80546001600160a01b0319166001600160a01b03909216919091179055565b6040516370a0823160e01b81523060048201526000907f00000000000000000000000000000000000000000000000000000000000000006001600160a01b0316906370a0823190602401602060405180830381865afa15801561139c573d6000803e3d6000fd5b505050506040513d601f19601f820116820180604052508101906113c09190611fa2565b905090565b6113cd611783565b6001546040516001600160a01b03909116904780156108fc02916000818181858888f19350505050158015610c07573d6000803e3d6000fd5b60008281526003602090815260408083206001600160a01b0385168452600b0182529182902080548351818402810184019094528084526060939283018282801561147057602002820191906000526020600020905b81548152602001906001019080831161145c575b5050505050905092915050565b611485611783565b6001600160a01b0381166114af57604051631e4fbdf760e01b815260006004820152602401610876565b610c07816117b0565b6114c0611783565b600060016006546114d19190611ece565b60008181526003602052604090206007015490915060ff166115285760405162461bcd60e51b815260206004820152601060248201526f4e6f2061637469766520726166666c6560801b6044820152606401610876565b610c07816115b5565b600280540361155357604051633ee5aeb560e01b815260040160405180910390fd5b60028055565b600081815260036020526040812060068101544210158061158257508060020154816003015410155b806115ae5750610258816005015461159a9190611ee1565b42101580156115ae5750600d810154600211155b9392505050565b6000818152600360205260409020600781015460ff1661160b5760405162461bcd60e51b8152602060048201526011602482015270526166666c65206e6f742061637469766560781b6044820152606401610876565b60008160030154116116515760405162461bcd60e51b815260206004820152600f60248201526e139bc81d1a58dad95d1cc81cdbdb19608a1b6044820152606401610876565b6009546040516370a0823160e01b81523060048201527f00000000000000000000000000000000000000000000000000000000000000006001600160a01b0316906370a0823190602401602060405180830381865afa1580156116b8573d6000803e3d6000fd5b505050506040513d601f19601f820116820180604052508101906116dc9190611fa2565b101561171c5760405162461bcd60e51b815260206004820152600f60248201526e4e6f7420656e6f756768204c494e4b60881b6044820152606401610876565b60078101805460ff1916905560085460095460009161173a91611a35565b6000818152600460205260408082208690556009850183905551919250829185917f587602b661da57eff43c58d2ebb4b7c66d08862f786faf29f390136b3309a12891a3505050565b6001546001600160a01b03163314610dbc5760405163118cdaa760e01b8152336004820152602401610876565b600180546001600160a01b038381166001600160a01b0319831681179093556040519116919082907f8be0079c531659141344cd1fd0a4f28419497f9722a3daafe3b4186f6b6457e090600090a35050565b60008281526004602090815260408083205480845260039092529091206007810154610100900460ff16156118795760405162461bcd60e51b815260206004820152601860248201527f526166666c6520616c726561647920636f6d706c6574656400000000000000006044820152606401610876565b600081600301548461188b9190611fd1565b611896906001611ee1565b6000818152600a80850160205260408220546007860180546008880186905561ff001963010000006001600160a01b039094169384021662ff0100600160b81b0319909116176101001790559054600486015493945090926064916118fa91611ef4565b6119049190611fe5565b905060008185600401546119189190611ece565b6001600160a01b038416600090815260056020526040812080549293508392909190611945908490611ee1565b9091555050600b546001600160a01b031660009081526005602052604081208054849290611974908490611ee1565b90915550506007805490600061198983611f72565b909155505060408051828152602081018690526001600160a01b0385169188917f3d210d5ae36955ded2bdf69bd956eb075b7fd07362288c7df1797cd8eb1199bf910160405180910390a36119e9662386f26fc100006064610e10611bb0565b60016006546119f89190611ece565b6040518781527f01032a2323990e48d0f5ad5370a5b4f31689c85159a7ff5c270fc5c7cd4e7f4a9060200160405180910390a25050505050505050565b60007f00000000000000000000000000000000000000000000000000000000000000006001600160a01b0316634000aea07f000000000000000000000000000000000000000000000000000000000000000084866000604051602001611aa5929190918252602082015260400190565b6040516020818303038152906040526040518463ffffffff1660e01b8152600401611ad293929190611ff9565b6020604051808303816000875af1158015611af1573d6000803e3d6000fd5b505050506040513d601f19601f82011682018060405250810190611b159190611f50565b5060008381526020818152604080832054815180840188905280830185905230606082015260808082018390528351808303909101815260a090910190925281519183019190912086845292909152611b6f906001611ee1565b60008581526020818152604091829020929092558051808301879052808201849052815180820383018152606090910190915280519101205b949350505050565b60065460008181526003602052604090208181556001810185905560028101849055426005820155611be483610e10611ef4565b611bee9042611ee1565b60068083019190915560078201805462ffffff191660011790558054906000611c1683611f72565b9091555050600681015460408051878152602081018790529081019190915282907faa34d14e4397df627425f65aa35b44e244791b1e87c4cc5ecb279f9e46a82f6f9060600160405180910390a25050505050565b600060208284031215611c7d57600080fd5b5035919050565b60008060208385031215611c9757600080fd5b823567ffffffffffffffff811115611cae57600080fd5b8301601f81018513611cbf57600080fd5b803567ffffffffffffffff811115611cd657600080fd5b856020828401011115611ce857600080fd5b6020919091019590945092505050565b6000815180845260005b81811015611d1e57602081850181015186830182015201611d02565b506000602082860101526020601f19601f83011685010191505092915050565b8215158152604060208201526000611ba86040830184611cf8565b80356001600160a01b0381168114611d7057600080fd5b919050565b600060208284031215611d8757600080fd5b6115ae82611d59565b60008060408385031215611da357600080fd5b82359150611db360208401611d59565b90509250929050565b60008060408385031215611dcf57600080fd5b50508035926020909101359150565b600081518084526020840193506020830160005b82811015611e10578151865260209586019590910190600101611df2565b5093949350505050565b608081526000611e2d6080830187611dde565b828103602084015280865180835260208301915060208801925060005b81811015611e715783516001600160a01b0316835260209384019390920191600101611e4a565b50508381036040850152611e858187611dde565b9150508281036060840152611e9a8185611dde565b979650505050505050565b6020815260006115ae6020830184611dde565b634e487b7160e01b600052601160045260246000fd5b81810381811115610faf57610faf611eb8565b80820180821115610faf57610faf611eb8565b8082028115828204841417610faf57610faf611eb8565b634e487b7160e01b600052604160045260246000fd5b634e487b7160e01b600052603260045260246000fd5b828152604060208201526000611ba86040830184611dde565b600060208284031215611f6257600080fd5b815180151581146115ae57600080fd5b600060018201611f8457611f84611eb8565b5060010190565b600081611f9a57611f9a611eb8565b506000190190565b600060208284031215611fb457600080fd5b5051919050565b634e487b7160e01b600052601260045260246000fd5b600082611fe057611fe0611fbb565b500690565b600082611ff457611ff4611fbb565b500490565b60018060a01b03841681528260208201526060604082015260006120206060830184611cf8565b9594505050505056fea26469706673582212203c0bb1b5a6c68305dba6d2ad486b0a7ed0c1acc81a4fe66ee1c0001262456ad664736f6c634300081c0033",
  "linkReferences": {},
  "deployedLinkReferences": {}
}