{
  "_format": "hh-sol-artifact-1",
  "contractName": "VRF25Raffle",
  "sourceName": "contracts/VRF25Raffle.sol",
  "abi": [
    {
      "inputs": [
        {
          "internalType": "address",
          "name": "_devWallet",
          "type": "address"
        }
      ],
      "stateMutability": "nonpayable",
      "type": "constructor"
    },
    {
      "inputs": [],
      "name": "InsufficientPayment",
      "type": "error"
    },
    {
      "inputs": [],
      "name": "NoParticipants",
      "type": "error"
    },
    {
      "inputs": [],
      "name": "NotEnoughDevFees",
      "type": "error"
    },
    {
      "inputs": [],
      "name": "OnlyVRFCoordinator",
      "type": "error"
    },
    {
      "inputs": [],
      "name": "OnlyWinnerCanClaim",
      "type": "error"
    },
    {
      "inputs": [
        {
          "internalType": "address",
          "name": "owner",
          "type": "address"
        }
      ],
      "name": "OwnableInvalidOwner",
      "type": "error"
    },
    {
      "inputs": [
        {
          "internalType": "address",
          "name": "account",
          "type": "address"
        }
      ],
      "name": "OwnableUnauthorizedAccount",
      "type": "error"
    },
    {
      "inputs": [],
      "name": "PrizeAlreadyClaimed",
      "type": "error"
    },
    {
      "inputs": [],
      "name": "RaffleNotOpen",
      "type": "error"
    },
    {
      "inputs": [],
      "name": "RaffleStillActive",
      "type": "error"
    },
    {
      "inputs": [],
      "name": "ReentrancyGuardReentrantCall",
      "type": "error"
    },
    {
      "inputs": [],
      "name": "WithdrawalFailed",
      "type": "error"
    },
    {
      "anonymous": false,
      "inputs": [
        {
          "indexed": true,
          "internalType": "address",
          "name": "devWallet",
          "type": "address"
        },
        {
          "indexed": false,
          "internalType": "uint256",
          "name": "amount",
          "type": "uint256"
        }
      ],
      "name": "DevFeesWithdrawn",
      "type": "event"
    },
    {
      "anonymous": false,
      "inputs": [
        {
          "indexed": true,
          "internalType": "address",
          "name": "previousOwner",
          "type": "address"
        },
        {
          "indexed": true,
          "internalType": "address",
          "name": "newOwner",
          "type": "address"
        }
      ],
      "name": "OwnershipTransferred",
      "type": "event"
    },
    {
      "anonymous": false,
      "inputs": [
        {
          "indexed": true,
          "internalType": "uint256",
          "name": "roundId",
          "type": "uint256"
        },
        {
          "indexed": true,
          "internalType": "address",
          "name": "winner",
          "type": "address"
        },
        {
          "indexed": false,
          "internalType": "uint256",
          "name": "amount",
          "type": "uint256"
        }
      ],
      "name": "PrizeClaimed",
      "type": "event"
    },
    {
      "anonymous": false,
      "inputs": [
        {
          "indexed": true,
          "internalType": "uint256",
          "name": "roundId",
          "type": "uint256"
        },
        {
          "indexed": false,
          "internalType": "uint256",
          "name": "startTime",
          "type": "uint256"
        }
      ],
      "name": "RaffleStarted",
      "type": "event"
    },
    {
      "anonymous": false,
      "inputs": [
        {
          "indexed": true,
          "internalType": "uint256",
          "name": "roundId",
          "type": "uint256"
        },
        {
          "indexed": false,
          "internalType": "uint256",
          "name": "requestId",
          "type": "uint256"
        }
      ],
      "name": "RandomnessRequested",
      "type": "event"
    },
    {
      "anonymous": false,
      "inputs": [
        {
          "indexed": true,
          "internalType": "uint256",
          "name": "roundId",
          "type": "uint256"
        },
        {
          "indexed": true,
          "internalType": "address",
          "name": "participant",
          "type": "address"
        },
        {
          "indexed": false,
          "internalType": "uint256",
          "name": "ticketCount",
          "type": "uint256"
        }
      ],
      "name": "TicketPurchased",
      "type": "event"
    },
    {
      "anonymous": false,
      "inputs": [
        {
          "indexed": true,
          "internalType": "uint256",
          "name": "roundId",
          "type": "uint256"
        },
        {
          "indexed": true,
          "internalType": "address",
          "name": "winner",
          "type": "address"
        },
        {
          "indexed": false,
          "internalType": "uint256",
          "name": "prizeAmount",
          "type": "uint256"
        }
      ],
      "name": "WinnerSelected",
      "type": "event"
    },
    {
      "inputs": [],
      "name": "DEV_PERCENTAGE",
      "outputs": [
        {
          "internalType": "uint256",
          "name": "",
          "type": "uint256"
        }
      ],
      "stateMutability": "view",
      "type": "function"
    },
    {
      "inputs": [],
      "name": "PRIZE_PERCENTAGE",
      "outputs": [
        {
          "internalType": "uint256",
          "name": "",
          "type": "uint256"
        }
      ],
      "stateMutability": "view",
      "type": "function"
    },
    {
      "inputs": [],
      "name": "RAFFLE_DURATION",
      "outputs": [
        {
          "internalType": "uint256",
          "name": "",
          "type": "uint256"
        }
      ],
      "stateMutability": "view",
      "type": "function"
    },
    {
      "inputs": [],
      "name": "TICKET_PRICE",
      "outputs": [
        {
          "internalType": "uint256",
          "name": "",
          "type": "uint256"
        }
      ],
      "stateMutability": "view",
      "type": "function"
    },
    {
      "inputs": [
        {
          "internalType": "uint256",
          "name": "ticketCount",
          "type": "uint256"
        }
      ],
      "name": "buyTickets",
      "outputs": [],
      "stateMutability": "payable",
      "type": "function"
    },
    {
      "inputs": [
        {
          "internalType": "uint256",
          "name": "roundId",
          "type": "uint256"
        }
      ],
      "name": "claimPrize",
      "outputs": [],
      "stateMutability": "nonpayable",
      "type": "function"
    },
    {
      "inputs": [],
      "name": "currentRoundId",
      "outputs": [
        {
          "internalType": "uint256",
          "name": "",
          "type": "uint256"
        }
      ],
      "stateMutability": "view",
      "type": "function"
    },
    {
      "inputs": [],
      "name": "devWallet",
      "outputs": [
        {
          "internalType": "address",
          "name": "",
          "type": "address"
        }
      ],
      "stateMutability": "view",
      "type": "function"
    },
    {
      "inputs": [],
      "name": "drawWinner",
      "outputs": [],
      "stateMutability": "nonpayable",
      "type": "function"
    },
    {
      "inputs": [],
      "name": "emergencyWithdraw",
      "outputs": [],
      "stateMutability": "nonpayable",
      "type": "function"
    },
    {
      "inputs": [],
      "name": "getBalanceInfo",
      "outputs": [
        {
          "internalType": "uint256",
          "name": "contractBalance",
          "type": "uint256"
        },
        {
          "internalType": "uint256",
          "name": "devFeesAvailable",
          "type": "uint256"
        }
      ],
      "stateMutability": "view",
      "type": "function"
    },
    {
      "inputs": [],
      "name": "getCurrentRaffle",
      "outputs": [
        {
          "internalType": "uint256",
          "name": "roundId",
          "type": "uint256"
        },
        {
          "internalType": "uint256",
          "name": "startTime",
          "type": "uint256"
        },
        {
          "internalType": "uint256",
          "name": "endTime",
          "type": "uint256"
        },
        {
          "internalType": "uint256",
          "name": "participantCount",
          "type": "uint256"
        },
        {
          "internalType": "uint256",
          "name": "prizePool",
          "type": "uint256"
        },
        {
          "internalType": "enum VRF25Raffle.RaffleState",
          "name": "state",
          "type": "uint8"
        },
        {
          "internalType": "address",
          "name": "winner",
          "type": "address"
        },
        {
          "internalType": "bool",
          "name": "canDraw",
          "type": "bool"
        }
      ],
      "stateMutability": "view",
      "type": "function"
    },
    {
      "inputs": [
        {
          "internalType": "uint256",
          "name": "roundId",
          "type": "uint256"
        },
        {
          "internalType": "address",
          "name": "participant",
          "type": "address"
        }
      ],
      "name": "getParticipantTickets",
      "outputs": [
        {
          "internalType": "uint256",
          "name": "",
          "type": "uint256"
        }
      ],
      "stateMutability": "view",
      "type": "function"
    },
    {
      "inputs": [
        {
          "internalType": "uint256",
          "name": "roundId",
          "type": "uint256"
        }
      ],
      "name": "getRaffleRound",
      "outputs": [
        {
          "internalType": "uint256",
          "name": "_roundId",
          "type": "uint256"
        },
        {
          "internalType": "uint256",
          "name": "startTime",
          "type": "uint256"
        },
        {
          "internalType": "uint256",
          "name": "endTime",
          "type": "uint256"
        },
        {
          "internalType": "address[]",
          "name": "participants",
          "type": "address[]"
        },
        {
          "internalType": "uint256",
          "name": "prizePool",
          "type": "uint256"
        },
        {
          "internalType": "uint256",
          "name": "devFee",
          "type": "uint256"
        },
        {
          "internalType": "enum VRF25Raffle.RaffleState",
          "name": "state",
          "type": "uint8"
        },
        {
          "internalType": "address",
          "name": "winner",
          "type": "address"
        },
        {
          "internalType": "bool",
          "name": "prizeClaimed",
          "type": "bool"
        }
      ],
      "stateMutability": "view",
      "type": "function"
    },
    {
      "inputs": [
        {
          "internalType": "address",
          "name": "user",
          "type": "address"
        }
      ],
      "name": "getUserTicketCount",
      "outputs": [
        {
          "internalType": "uint256",
          "name": "count",
          "type": "uint256"
        }
      ],
      "stateMutability": "view",
      "type": "function"
    },
    {
      "inputs": [],
      "name": "getVRFConfig",
      "outputs": [
        {
          "internalType": "uint256",
          "name": "subscriptionId",
          "type": "uint256"
        },
        {
          "internalType": "bytes32",
          "name": "keyHash",
          "type": "bytes32"
        },
        {
          "internalType": "uint32",
          "name": "callbackGasLimit",
          "type": "uint32"
        },
        {
          "internalType": "uint16",
          "name": "requestConfirmations",
          "type": "uint16"
        }
      ],
      "stateMutability": "pure",
      "type": "function"
    },
    {
      "inputs": [],
      "name": "getVRFCoordinator",
      "outputs": [
        {
          "internalType": "address",
          "name": "",
          "type": "address"
        }
      ],
      "stateMutability": "view",
      "type": "function"
    },
    {
      "inputs": [],
      "name": "isReadyToDraw",
      "outputs": [
        {
          "internalType": "bool",
          "name": "",
          "type": "bool"
        }
      ],
      "stateMutability": "view",
      "type": "function"
    },
    {
      "inputs": [],
      "name": "owner",
      "outputs": [
        {
          "internalType": "address",
          "name": "",
          "type": "address"
        }
      ],
      "stateMutability": "view",
      "type": "function"
    },
    {
      "inputs": [
        {
          "internalType": "uint256",
          "name": "",
          "type": "uint256"
        }
      ],
      "name": "raffleRounds",
      "outputs": [
        {
          "internalType": "uint256",
          "name": "roundId",
          "type": "uint256"
        },
        {
          "internalType": "uint256",
          "name": "startTime",
          "type": "uint256"
        },
        {
          "internalType": "uint256",
          "name": "endTime",
          "type": "uint256"
        },
        {
          "internalType": "uint256",
          "name": "prizePool",
          "type": "uint256"
        },
        {
          "internalType": "uint256",
          "name": "devFee",
          "type": "uint256"
        },
        {
          "internalType": "enum VRF25Raffle.RaffleState",
          "name": "state",
          "type": "uint8"
        },
        {
          "internalType": "address",
          "name": "winner",
          "type": "address"
        },
        {
          "internalType": "uint256",
          "name": "vrfRequestId",
          "type": "uint256"
        },
        {
          "internalType": "bool",
          "name": "prizeClaimed",
          "type": "bool"
        }
      ],
      "stateMutability": "view",
      "type": "function"
    },
    {
      "inputs": [
        {
          "internalType": "uint256",
          "name": "requestId",
          "type": "uint256"
        },
        {
          "internalType": "uint256[]",
          "name": "randomWords",
          "type": "uint256[]"
        }
      ],
      "name": "rawFulfillRandomWords",
      "outputs": [],
      "stateMutability": "nonpayable",
      "type": "function"
    },
    {
      "inputs": [],
      "name": "renounceOwnership",
      "outputs": [],
      "stateMutability": "nonpayable",
      "type": "function"
    },
    {
      "inputs": [],
      "name": "totalDevFees",
      "outputs": [
        {
          "internalType": "uint256",
          "name": "",
          "type": "uint256"
        }
      ],
      "stateMutability": "view",
      "type": "function"
    },
    {
      "inputs": [
        {
          "internalType": "address",
          "name": "newOwner",
          "type": "address"
        }
      ],
      "name": "transferOwnership",
      "outputs": [],
      "stateMutability": "nonpayable",
      "type": "function"
    },
    {
      "inputs": [
        {
          "internalType": "address",
          "name": "newDevWallet",
          "type": "address"
        }
      ],
      "name": "updateDevWallet",
      "outputs": [],
      "stateMutability": "nonpayable",
      "type": "function"
    },
    {
      "inputs": [],
      "name": "withdrawDevFees",
      "outputs": [],
      "stateMutability": "nonpayable",
      "type": "function"
    }
  ],
  "bytecode": "0x60a060405234801561001057600080fd5b5060405161196638038061196683398101604081905261002f91610199565b338061005557604051631e4fbdf760e01b81526000600482015260240160405180910390fd5b61005e816100bf565b5060018055739ddfaca8183c41ad55329bdeed9f6a8d53168b1b6080526001600160a01b03811661008f5733610091565b805b600580546001600160a01b0319166001600160a01b03929092169190911790556100b961010f565b50610211565b600080546001600160a01b038381166001600160a01b0319831681178455604051919092169283917f8be0079c531659141344cd1fd0a4f28419497f9722a3daafe3b4186f6b6457e09190a35050565b6002805490600061011f836101df565b90915550506002546000818152600360205260409020908155426001820181905561014d90610258906101f8565b60028281019190915560068201805460ff19169055546040514281527fe1078fbf8122252d4552c2b9c945a0794c0dcfd34277a548cabe558ebb8fb6609060200160405180910390a250565b6000602082840312156101ab57600080fd5b81516001600160a01b03811681146101c257600080fd5b9392505050565b634e487b7160e01b600052601160045260246000fd5b6000600182016101f1576101f16101c9565b5060010190565b8082018082111561020b5761020b6101c9565b92915050565b60805161172c61023a60003960008181610473015281816106fd0152610d56015261172c6000f3fe6080604052600436106101815760003560e01c8063963ef2a2116100d1578063d70981541161008a578063e6e9ca4111610064578063e6e9ca41146104f7578063f2a50d5e1461050d578063f2fde38b1461052d578063fc00e6281461054d57600080fd5b8063d7098154146104ac578063db2e21bc146104cc578063e544a554146104e157600080fd5b8063963ef2a2146103855780639a5ea6a0146103a55780639cbe5efd146104195780639d6d8fa31461042f578063a378f37114610464578063b2185bb11461049757600080fd5b80635684770b1161013e5780637e50e44b116101185780637e50e44b146102e5578063830667b51461030e5780638da5cb5b146103335780638ea5220f1461036557600080fd5b80635684770b146102a6578063715018a6146102bb57806374b064aa146102d057600080fd5b80630da590d4146101865780631816467f1461019d5780631a95f15f146101bd5780631fe543e3146101eb5780632f3666371461020b57806344aca4931461021e575b600080fd5b34801561019257600080fd5b5061019b610579565b005b3480156101a957600080fd5b5061019b6101b836600461130e565b610678565b3480156101c957600080fd5b506101d866038d7ea4c6800081565b6040519081526020015b60405180910390f35b3480156101f757600080fd5b5061019b610206366004611330565b6106f2565b61019b6102193660046113b1565b610820565b34801561022a57600080fd5b506102916102393660046113b1565b600360205260009081526040902080546001820154600283015460048401546005850154600686015460078701546008909701549596949593949293919260ff808316936101009093046001600160a01b0316921689565b6040516101e299989796959493929190611402565b3480156102b257600080fd5b506101d8600a81565b3480156102c757600080fd5b5061019b61099b565b3480156102dc57600080fd5b506101d8605a81565b3480156102f157600080fd5b506102fa6109ad565b6040516101e298979695949392919061145f565b34801561031a57600080fd5b50610323610a57565b60405190151581526020016101e2565b34801561033f57600080fd5b506000546001600160a01b03165b6040516001600160a01b0390911681526020016101e2565b34801561037157600080fd5b5060055461034d906001600160a01b031681565b34801561039157600080fd5b506101d86103a036600461130e565b610aa8565b3480156103b157600080fd5b50604080517f8cb2435f8c79f84ac380d04899c08d51d6fb98401e48517cecd2f756d6d4a91481527f787d74caea10b2b357790d5b5247c2f63d1d91572a9846f780606e4d953677ae6020820152620493e091810191909152600360608201526080016101e2565b34801561042557600080fd5b506101d860025481565b34801561043b57600080fd5b5061044f61044a3660046113b1565b610b1d565b6040516101e2999897969594939291906114b4565b34801561047057600080fd5b507f000000000000000000000000000000000000000000000000000000000000000061034d565b3480156104a357600080fd5b5061019b610c17565b3480156104b857600080fd5b5061019b6104c73660046113b1565b610e39565b3480156104d857600080fd5b5061019b610f6e565b3480156104ed57600080fd5b506101d861025881565b34801561050357600080fd5b506101d860065481565b34801561051957600080fd5b506101d8610528366004611555565b6110be565b34801561053957600080fd5b5061019b61054836600461130e565b611186565b34801561055957600080fd5b506105646006544791565b604080519283526020830191909152016101e2565b6105816111c1565b6105896111ee565b6006546000036105ac57604051635b3bb77160e01b815260040160405180910390fd5b6006805460009091556005546040518281526001600160a01b03909116907f233035a50c34922302fe772f0768dd765b51b5a27344364899b3ae6e87cd24eb9060200160405180910390a26005546040516000916001600160a01b03169083908381818185875af1925050503d8060008114610644576040519150601f19603f3d011682016040523d82523d6000602084013e610649565b606091505b505090508061066b576040516327fcd9d160e01b815260040160405180910390fd5b505061067660018055565b565b6106806111c1565b6001600160a01b0381166106d05760405162461bcd60e51b8152602060048201526012602482015271125b9d985b1a590819195d881dd85b1b195d60721b60448201526064015b60405180910390fd5b600580546001600160a01b0319166001600160a01b0392909216919091179055565b336001600160a01b037f0000000000000000000000000000000000000000000000000000000000000000161461073b57604051636b086b6d60e11b815260040160405180910390fd5b600083815260046020908152604080832054808452600392839052908320918201549092908585838161077057610770611581565b9050602002013561078191906115ad565b9050600082600301828154811061079a5761079a611581565b600091825260209182902001546006850180546001600160a81b03191660ff196101006001600160a01b03909416938402161760021790556004850154604051908152909250829186917ffee5b04775e1cd2311ed22cd00f5d2403aff38ff6f71d6d393f51854ed6bc986910160405180910390a3610817611218565b50505050505050565b6108286111ee565b600254600090815260036020526040812090600682015460ff166002811115610853576108536113ca565b146108715760405163ee0eb16d60e01b815260040160405180910390fd5b6108828266038d7ea4c680006115d7565b34146108a15760405163cd1c886760e01b815260040160405180910390fd5b60005b828110156108da5760038201805460018181018355600092835260209092200180546001600160a01b03191633179055016108a4565b5034600060646108eb605a846115d7565b6108f591906115ee565b905060006109038284611602565b9050818460040160008282546109199190611615565b92505081905550808460050160008282546109349190611615565b92505081905550806006600082825461094d9190611615565b90915550506002546040518681523391907fdbaaf4c87ce30816c961a81d110622a3227ede77953d4383d514ff88ab2e0fd39060200160405180910390a35050505061099860018055565b50565b6109a36111c1565b61067660006112a2565b60028054600090815260036020819052604082208054600182015494820154928201546004830154600684015495968796879687968796879687968796939592949260ff81169061010090046001600160a01b031688600689015460ff166002811115610a1c57610a1c6113ca565b148015610a2d575087600201544210155b8015610a3c5750600388015415155b98509850985098509850985098509850509091929394959697565b600254600090815260036020526040812081600682015460ff166002811115610a8257610a826113ca565b148015610a93575080600201544210155b8015610aa25750600381015415155b91505090565b6002546000908152600360205260408120815b6003820154811015610b1657836001600160a01b0316826003018281548110610ae657610ae6611581565b6000918252602090912001546001600160a01b031603610b0e5782610b0a81611628565b9350505b600101610abb565b5050919050565b60008060006060600080600080600080600360008c8152602001908152602001600020905080600001548160010154826002015483600301846004015485600501548660060160009054906101000a900460ff168760060160019054906101000a90046001600160a01b03168860080160009054906101000a900460ff1685805480602002602001604051908101604052809291908181526020018280548015610bf057602002820191906000526020600020905b81546001600160a01b03168152600190910190602001808311610bd2575b50505050509550995099509950995099509950995099509950509193959799909294969850565b610c1f6111ee565b600254600090815260036020526040812090600682015460ff166002811115610c4a57610c4a6113ca565b14610c685760405163ee0eb16d60e01b815260040160405180910390fd5b8060020154421015610c8d57604051636ab8c20d60e11b815260040160405180910390fd5b6003810154600003610cb2576040516308b6a47360e41b815260040160405180910390fd5b60068101805460ff1916600190811790915560408051602080820183526000808352835160c0810185527f787d74caea10b2b357790d5b5247c2f63d1d91572a9846f780606e4d953677ae81527f8cb2435f8c79f84ac380d04899c08d51d6fb98401e48517cecd2f756d6d4a91492810192909252600382850152620493e06060830152608082019490945260a081018290529151634d8e1c2f60e11b81529092917f00000000000000000000000000000000000000000000000000000000000000006001600160a01b031691639b1c385e91610d9191600401611641565b6020604051808303816000875af1158015610db0573d6000803e3d6000fd5b505050506040513d601f19601f82011682018060405250810190610dd491906116dd565b600784018190556002546000828152600460205260409081902082905551919250907f3d94fecedaa4f90b8bd459797adb95f5bb11426025c5541390d9ccc1ad1b60a190610e259084815260200190565b60405180910390a250505061067660018055565b610e416111ee565b6000818152600360205260409020600681015461010090046001600160a01b03163314610e815760405163163e5ab360e31b815260040160405180910390fd5b600881015460ff1615610ea75760405163611ab18960e11b815260040160405180910390fd5b60088101805460ff191660011790556004810154604051339084907f4aa95f981a8337cb337de335b965507da0879c3b49f799d20058e913f5ad2c2690610ef19085815260200190565b60405180910390a3604051600090339083908381818185875af1925050503d8060008114610f3b576040519150601f19603f3d011682016040523d82523d6000602084013e610f40565b606091505b5050905080610f62576040516327fcd9d160e01b815260040160405180910390fd5b50505061099860018055565b610f766111c1565b6002546000908152600360208190526040909120015415610fd05760405162461bcd60e51b815260206004820152601460248201527341637469766520726166666c652065786973747360601b60448201526064016106c7565b47806110175760405162461bcd60e51b81526020600482015260166024820152754e6f2062616c616e636520746f20776974686472617760501b60448201526064016106c7565b600080546040516001600160a01b039091169083908381818185875af1925050503d8060008114611064576040519150601f19603f3d011682016040523d82523d6000602084013e611069565b606091505b50509050806110ba5760405162461bcd60e51b815260206004820152601b60248201527f456d657267656e6379207769746864726177616c206661696c6564000000000060448201526064016106c7565b5050565b6000828152600360208181526040808420909201805483518184028101840190945280845284939283018282801561111f57602002820191906000526020600020905b81546001600160a01b03168152600190910190602001808311611101575b505050505090506000805b825181101561117b57846001600160a01b031683828151811061114f5761114f611581565b60200260200101516001600160a01b031603611173578161116f81611628565b9250505b60010161112a565b509150505b92915050565b61118e6111c1565b6001600160a01b0381166111b857604051631e4fbdf760e01b8152600060048201526024016106c7565b610998816112a2565b6000546001600160a01b031633146106765760405163118cdaa760e01b81523360048201526024016106c7565b60026001540361121157604051633ee5aeb560e01b815260040160405180910390fd5b6002600155565b6002805490600061122883611628565b9091555050600254600081815260036020526040902090815542600182018190556112569061025890611615565b60028281019190915560068201805460ff19169055546040514281527fe1078fbf8122252d4552c2b9c945a0794c0dcfd34277a548cabe558ebb8fb6609060200160405180910390a250565b600080546001600160a01b038381166001600160a01b0319831681178455604051919092169283917f8be0079c531659141344cd1fd0a4f28419497f9722a3daafe3b4186f6b6457e09190a35050565b80356001600160a01b038116811461130957600080fd5b919050565b60006020828403121561132057600080fd5b611329826112f2565b9392505050565b60008060006040848603121561134557600080fd5b83359250602084013567ffffffffffffffff81111561136357600080fd5b8401601f8101861361137457600080fd5b803567ffffffffffffffff81111561138b57600080fd5b8660208260051b84010111156113a057600080fd5b939660209190910195509293505050565b6000602082840312156113c357600080fd5b5035919050565b634e487b7160e01b600052602160045260246000fd5b600381106113fe57634e487b7160e01b600052602160045260246000fd5b9052565b6000610120820190508a825289602083015288604083015287606083015286608083015261143360a08301876113e0565b6001600160a01b039490941660c082015260e08101929092521515610100909101529695505050505050565b60006101008201905089825288602083015287604083015286606083015285608083015261149060a08301866113e0565b6001600160a01b039390931660c082015290151560e0909101529695505050505050565b600061012082018b83528a602084015289604084015261012060608401528089518083526101408501915060208b01925060005b8181101561150f5783516001600160a01b03168352602093840193909201916001016114e8565b505080925050508660808301528560a083015261152f60c08301866113e0565b6001600160a01b03841660e08301528215156101008301529a9950505050505050505050565b6000806040838503121561156857600080fd5b82359150611578602084016112f2565b90509250929050565b634e487b7160e01b600052603260045260246000fd5b634e487b7160e01b600052601260045260246000fd5b6000826115bc576115bc611597565b500690565b634e487b7160e01b600052601160045260246000fd5b8082028115828204841417611180576111806115c1565b6000826115fd576115fd611597565b500490565b81810381811115611180576111806115c1565b80820180821115611180576111806115c1565b60006001820161163a5761163a6115c1565b5060010190565b60208152815160208201526020820151604082015261ffff604083015116606082015263ffffffff606083015116608082015263ffffffff60808301511660a0820152600060a083015160c08084015280518060e085015260005b818110156116ba57602081840181015161010087840101520161169c565b5060006101008286010152610100601f19601f8301168501019250505092915050565b6000602082840312156116ef57600080fd5b505191905056fea264697066735822122067d4f461caa56dadb8355887b20993405cacd1613bb50f330c09df7017fd938a64736f6c634300081c0033",
  "linkReferences": {},
  "deployedLinkReferences": {}
}